:100686004E6F2053656E736F7220466F756E6421D0
:1006960000436865636B73756D204572726F7221D6
:1006A60000522E482F20253A2020202020202000EE
:0C06B600546D702F00433A002D0020000E
:0A094C00080D00060909060000006E
:10010E00E4F5151209401202698F15E51524FE60FB
:10011E000714600F240270191209257BFF7A0679E5
:10012E008680091209257BFF7A0679971207DC80F3
:10013E0074E4FDFF1208FD7BFF7A0679A71207DC37
:10014E00AB08E4FD7F0E1206FB7D01E4FF1208FDF5
:10015E007BFF7A0679B61207DC7D017F041208FD5B
:10016E007D01E4FF1207307D017F051208FD7BFF44
:10017E007A0679BB1207DCE50A5480FF7D01BF01C8
:10018E000D7F0D1208FD7BFF7A0679BE800B7F0D69
:10019E001208FD7BFF7A0679C01207DCAB0A7D01DF
:0F01AE007F0E1206FB7FE87E0312089B020114EE
:0C09400012093312060312092502078D6C
:10078D00E4F516FD7F40120730E4F516740D2516BD
:10079D00F8E6FF7D011207300516E516C3940840F3
:0807AD00EBE4FD7F8002073040
:0606FB008F168D178B180D
:10070100E4F519E51875F00A842430F5191208FD8D
:10071100AF191208E7E51875F00A84E5F02430F501
:0F07210019E51604FFAD171208FDAF190208E71E
:1006C20053B1BF53B2BF53B17F53B27F75985043FA
:1006D2008920438780438E1053C4DFAB07AA06A943
:1006E20005A8047F407E427D0F7C00120058EF0473
:0906F200F404F58DD28ED2992298
:1002D9008F248E238D228C2153B1BF53B2BF53B1CA
:1002E9007F53B27F75985043878053C4F843C42025
:1002F900AB24AA23A922A8217F407E427D0F7C003E
:10030900120058C374FF9FFF74FF9EFEE49DFDE435
:100319009CFC78081200FB8FC6AB24AA23A922A84B
:10032900217F407E427D0F7C00120058C374FF9FDD
:09033900FF8FC543C408D29922CC
:070961003098FDAF99C29828
:01096800226C
:08096900C2998F993099FD221B
:100342008F288E278D268C2553B1FB53B2FB53B3D6
:10035200BF53B4BF75F85075C40853C4DFAB28AAA5
:1003620027A926A8257F407E427D0F7C00120058D7
:10037200C374FF9FFF74FF9EFEE49DFDE49CFC7826
:10038200081200FB8FC6AB28AA27A926A8257F4002
:100392007E427D0F7C00120058C374FF9FFF8FC501
:0403A20043C4082226
:0709710030F8FDAF9AC2F857
:01097800225C
:08097900C2F98F9A30F9FD224A
:1004DA008F2C8E2B8D2A8C29538EF7438901D28C2F
:1004EA00E4FFFEFDFCAB2CAA2BA92AA829C3120003
:1004FA00EA6025758A7E758CFF308DFDC28DE52CEC
:10050A0024FFF52CE52B34FFF52BE52A34FFF52AD9
:0B051A00E52934FFF52980C8C28C22BF
:100525008F308E2F8D2E8C2D538EF7438901D28CD3
:10053500E4FFFEFDFCAB30AA2FA92EA82DC31200A7
:10054500EA6025758ACA758CFA308DFDC28DE53055
:1005550024FFF530E52F34FFF52FE52E34FFF52E7A
:0B056500E52D34FFF52D80C8C28C226C
:100570008F348E338D328C31538EEF438910D28E6F
:10058000E4FFFEFDFCAB34AA33A932A831C312004C
:10059000EA6025758BEA758DCB308FFDC28FE5340F
:1005A00024FFF534E53334FFF533E53234FFF5321B
:0B05B000E53134FFF53180C8C28E2217
:1003A6008F388E378D368C3553C9BF53C9DF43C955
:1003B60010D2CAE4FFFEFDFCAB38AA37A936A83531
:1003C600C31200EA602575CC3075CDF830CFFDC27A
:1003D600CFE53824FFF538E53734FFF537E5363411
:0E03E600FFF536E53534FFF53580C8C2CA2272
:1003F4008F3C8E3B8D3A8C3975C40743C408E4FFA7
:10040400FEFDFCAB3CAA3BA93AA839C31200EA6042
:100414002875C52C75C6CFE5C430E4FB53C4EFE59D
:100424003C24FFF53CE53B34FFF53BE53A34FFF56E
:0D0434003AE53934FFF53980C553C4F7228D
:100441008F408E3F8D3E8C3D75C40743C408E4FF49
:10045100FEFDFCAB40AA3FA93EA83DC31200EA60E5
:100461002875C5D875C6FFE5C430E4FB53C4EFE574
:100471004024FFF540E53F34FFF53FE53E34FFF50D
:0D0481003EE53D34FFF53D80C553C4F72234
:100603001209577F0A7E0012089B75450175440441
:10061300AF441208637F0A7E0012089BE4FD7F3318
:10062300120730E4FD7F32120730E4FD7F28120702
:1006330030E4FD7F0C120730E4FD7F01120730E444
:06064300FD7F06020730F6
:10082800434404AF441208637F017E0012089B53BF
:0E08380044F9AF441208637F017E0002089B62
:100730008F1BED1460080470085344F48003434495
:1007400001E545600814700843440880035344F7EA
:10075000AF44120863AF1B1207B57F017E00020889
:010760009BFD
:0207B5008F1C97
:1007B700E51C54F053440F4244AF44120863120837
:1007C70028E51C540FC454F053440F4244AF44125D
:0507D700086302082880
:1007DC008B168A178918AB160518E518AA1770021C
:1007EC00051714F9120003FF1208E7AB16AA17A994
:0707FC001812000370E02257
:1008E700C3EF648094A0400DD3EF648094FF50055C
:0608F7007D011207302212
:0E092500E4FD7F01120730E4FD7F020207307F
:1008FD008F1AED7006E51A44808004E51A44C0FF96
:06090D00E4FD1207302298
:0A0957001208CF7F0A7E0002089B01
:1008B700E4F5481208467F4F1205BBE4FF12048E89
:0708C7008F4812087FAF48C3
:0108CE002207
:100863008F1D1208467F4E1205BB7FFF120803AF90
:0C0873001D1205BB7FFF12080302087F66
:1008CF0053B1F743B20853B1EF43B2107F0A7E0022
:0808DF0012089BD283D284228F
:1008460053B1F743B208D283D2847F287E001209BF
:0D08560013C2837F287E00120913C2842282
:10087F0053B1F743B208C283C2847F287E001209A6
:0C088F0013D283D2847F287E000209135C
:02048E008F419C
:10049000754208E4F54343B10853B2F7C2847F14B0
:1004A0007E00120913D2847F147E00120913E543E3
:1004B00025E0F54330830205437F0A7E00120913CD
:1004C0001542E542D3940050D3E5410470047FFF08
:0904D0008002E4FF120803AF43AF
:0104D9002200
:0205BB008F1E91
:1005BD00751F0853B1F743B208C284E51E5480C4B9
:1005CD0013131354016004D2838002C283E51E25E8
:1005DD00E0F51E7F147E00120913D2847F147E0075
:1005ED00120913C2847F147E00120913151FE51F13
:0505FD00D3940050C67C
:0106020022D5
:10080300C28453B1F743B208EF047004C283800279
:10081300D2837F147E00120913D2847F147E0012C8
:050823000913C284224C
:10064900E4F546F54743B10853B2F7D2837F0AFE72
:10065900120913D2847F0A7E001209133083190507
:1006690047E54770020546D394E8E54664809483DC
:0C06790040EA12087F7F0122C2847F004B
:010685002252
:0D09330053B1DF53B2DF7FE87E0302089B63
:10076100E4F518F519F518E51925E0F5193085FDB9
:100771007F1E7E001209133085034319012085FD78
:0B0781000518E518C3940840DEAF190E
:01078C00224A
:10026900E4FEF516F517D285C2857F1212089BD2D6
:10027900857F1A7E00120913A285E43360037F018A
:10028900227F507E00120913A285E43370037F0296
:10029900227F507E00120913E4F5161207617408D3
:1002A9002516F8A6070516E516D3940440EDD28560
:1002B900E4F51674082516F8E62517F5170516E569
:0F02C90016B404EFE517650C60037F03227F0076
:0102D8002203
:10091300D3EF9400EE9400400800EF1F70F21E80A6
:02092300EF22C1
:10089B00AD07AC06D3ED9400EC9400400EED1D704B
:0C08AB00011C7FE87E0312091380E92283
:030000000201BD3D
:1001BD0075C7AA75C75575FD5A75C7AA75C7557503
:1001CD00FDA5787FE4F6D8FD9000007FFF7E03E467
:0C01DD00F0A3DFFCDEFA7581480202246A
:1001E90002010EE493A3F8E493A34003F68001F21D
:1001F90008DFF48029E493A3F85407240CC8C33317
:10020900C4540F4420C8834004F456800146F6DFE5
:10021900E4800B010204081020408090094CE47E20
:10022900019360BCA3FF543F30E509541FFEE493DA
:10023900A360010ECF54C025E060A840B8E493A3A1
:10024900FAE493A3F8E493A3C8C582C8CAC583CACC
:10025900F0A3C8C582C8CAC583CADFE9DEE780BE84
:0109560000A0
:10000300BB010689828A83E0225002E722BBFE02FB
:09001300E32289828A83E493222E
:10001C0075F008758200EF2FFFEE33FECD33CDCC9B
:10002C0033CCC58233C5829BED9AEC99E58298401E
:10003C000CF582EE9BFEED9AFDEC99FC0FD5F0D6FB
:10004C00E4CEFBE4CDFAE4CCF9A88222B800C1B925
:10005C000059BA002DEC8BF084CFCECDFCE5F0CB63
:10006C00F97818EF2FFFEE33FEED33FDEC33FCEB9C
:10007C0033FB10D703994004EB99FB0FD8E5E4F957
:10008C00FA227818EF2FFFEE33FEED33FDEC33FC44
:10009C00C933C910D7059BE99A4007EC9BFCE99A38
:1000AC00F90FD8E0E4C9FAE4CCFB2275F010EF2F7D
:1000BC00FFEE33FEED33FDCC33CCC833C810D7077D
:1000CC009BEC9AE899400AED9BFDEC9AFCE899F8B8
:0E00DC000FD5F0DAE4CDFBE4CCFAE4C8F9224B
:1000EA00EB9FF5F0EA9E42F0E99D42F0E89C45F06C
:0100FA0022E3
:1000FB00E8600FECC313FCED13FDEE13FEEF13FFE3
:03010B00D8F12206
:00000001FF
