:100D2F0041444320436F756E743A004C75782056DA
:060D3F00616C75653A00CD
:040DB1000238000004
:03005B00020A8E08
:100A8E00C0E0C0F0C083C082C0D075D000C000C02E
:100A9E0001C002C003C004C005C006C007120CE7A7
:100AAE008E388F39C2EFD007D006D005D004D003D0
:100ABE00D002D001D000D0D0D082D083D0F0D0E000
:010ACE0032F5
:100BB500E4F508F509120ACFD2EE12064E8E088F1B
:100BC50009AB39AA38E4FD7F0C1206E2AB09AA0885
:100BD5007D017F0C1206E27F907E01120CCB80D83E
:100ACF00120A48120D83E4FDFF120D5B7BFF7A0DB6
:100ADF00792F120C0C7D01E4FF120D5B7BFF7A0D59
:100AEF00793A120C0C53E8F043E80443B12053B2A7
:0F0AFF00DFE4F5F643F61043E101D2AED2AF22A9
:100CE700E4FEAFC3EFC4F8540FC868FFEEC454F076
:070CF70048FEADC2ED42070B
:010CFE0022D3
:1006E2008F0A8D0B8A0C8B0D120D5BAE0CAF0D7C3D
:1006F200037DE812044DEF2430FF120D45E50A0494
:10070200FFAD0B120D5BAE0CAF0D7C037DE8120446
:100712004D7E007F64CFCDCFCECCCE12044DEF24E0
:1007220030FF120D45E50A2402FFAD0B120D5BAE40
:100732000CAF0D7C007D6412044D7E007F0ACFCD8C
:10074200CFCECCCE12044DEF2430FF120D45E50A78
:100752002403FFAD0B120D5BAE0CAF0D7C007D0AC6
:0A07620012044DED2430FF020D4596
:10064E00E4F50DF50CF50BF50AAC38AD3912037A5D
:10065E008F0D8E0C8D0B8C0A7F007E407D1C7C4690
:10066E00AB0DAA0CA90BA80A120156A804A905AA3B
:10067E0006AB077F007EF07D7F7C4512025F7B001C
:10068E007A5079C378471201567BCD7ACC79CC78E3
:10069E00BD1200658F0D8E0C8D0B8C0AE4FFFEFDD6
:1006AE00FCAB0DAA0CA90BA80A1202FC40227F007B
:1006BE007E3C7D1C7C46AB0DAA0CA90BA80A12022F
:1006CE00FC6002500BAF0DAE0CAD0BAC0A0203B3C7
:0306DE00E4FEFF38
:0106E10022F6
:100B4B0053B1BF53B2BF53B17F53B27F759850436C
:100B5B008920438780438E1053C4DFAB07AA06A9B5
:100B6B0005A8047F407E427D0F7C001204DEEF045B
:090B7B00F404F58DD28ED299220A
:10076C008F178E168D158C1453B1BF53B2BF53B166
:10077C007F53B27F75985043878053C4F843C4208D
:10078C00AB17AA16A915A8147F407E427D0F7C00DA
:10079C001204DEC374FF9FFF74FF9EFEE49DFDE414
:1007AC009CFC780812058F8FC6AB17AA16A915A842
:1007BC00147F407E427D0F7C001204DEC374FF9FC9
:0907CC00FF8FC543C408D2992235
:070D91003098FDAF99C298F4
:010D98002238
:080D9900C2998F993099FD22E7
:1007D5008F1B8E1A8D198C1853B1FB53B2FB53B373
:1007E500BF53B4BF75F85075C40853C4DFAB1BAA1B
:1007F5001AA919A8187F407E427D0F7C001204DEDD
:10080500C374FF9FFF74FF9EFEE49DFDE49CFC788E
:100815000812058F8FC6AB1BAA1AA919A8187F4005
:100825007E427D0F7C001204DEC374FF9FFF8FC5DF
:0408350043C408228E
:070DA10030F8FDAF9AC2F823
:010DA8002228
:080DA900C2F98F9A30F9FD2216
:10091F008F1F8E1E8D1D8C1C538EF7438901D28C19
:10092F00E4FFFEFDFCAB1FAA1EA91DA81CC31205E8
:10093F007E6025758A7E758CFF308DFDC28DE51F1B
:10094F0024FFF51FE51E34FFF51EE51D34FFF51DD1
:0B095F00E51C34FFF51C80C8C28C2290
:10096A008F248E238D228C21538EF7438901D28CBA
:10097A00E4FFFEFDFCAB24AA23A922A821C3120589
:10098A007E6025758ACA758CFA308DFDC28DE52484
:10099A0024FFF524E52334FFF523E52234FFF5226D
:0B09AA00E52134FFF52180C8C28C223B
:1009B5008F288E278D268C25538EEF438910D28E56
:1009C500E4FFFEFDFCAB28AA27A926A825C312052E
:1009D5007E6025758BEA758DCB308FFDC28FE5283E
:1009E50024FFF528E52734FFF527E52634FFF5260E
:0B09F500E52534FFF52580C8C28E22E6
:100003008F2C8E2B8D2A8C2953C9BF53C9DF43C92B
:1000130010D2CAE4FFFEFDFCAB2CAA2BA92AA82907
:10002300C312057E602575CC3075CDF830CFFDC287
:10003300CFE52C24FFF52CE52B34FFF52BE52A34F3
:0E004300FFF52AE52934FFF52980C8C2CA223C
:100839008F308E2F8D2E8C2D75C40743C408E4FF8D
:10084900FEFDFCAB30AA2FA92EA82DC312057E6090
:100859002875C52C75C6CFE5C430E4FB53C4EFE554
:100869003024FFF530E52F34FFF52FE52E34FFF561
:0D0879002EE52D34FFF52D80C553C4F72268
:100886008F348E338D328C3175C40743C408E4FF30
:10089600FEFDFCAB34AA33A932A831C312057E6033
:1008A6002875C5D875C6FFE5C430E4FB53C4EFE52B
:1008B6003424FFF534E53334FFF533E53234FFF500
:0D08C60032E53134FFF53180C553C4F7220F
:100A48001200517F0A7E00120CCB753B01753A04E7
:100A5800AF3A120C937F0A7E00120CCBE4FD7F3371
:100A6800120B84E4FD7F32120B84E4FD7F28120B05
:100A780084E4FD7F0C120B84E4FD7F01120B84E4F7
:060A8800FD7F06020B8455
:100C5800433A04AF3A120C937F017E00120CCB5337
:0E0C68003AF9AF3A120C937F017E00020CCBDA
:100B84008F0FED146008047008533AF48003433A5D
:100B940001E53B6008147008433A088003533AF7B0
:100BA400AF3A120C93AF0F120BE57F017E00020CDB
:010BB400CB75
:020BE5008F106F
:100BE700E51054F0533A0F423AAF3A120C93120CF5
:100BF70058E510540FC454F0533A0F423AAF3A1223
:050C07000C93020C58E3
:100C0C008B0A8A0B890CAB0A050CE50CAA0B70023B
:100C1C00050B14F9120434FF120D45AB0AAA0BA9EB
:070C2C000C12043470E022F9
:100D4500C3EF648094A0400DD3EF648094FF5005F9
:060D55007D01120B842257
:0E0D8300E4FD7F01120B84E4FD7F02020B846D
:100D5B008F0EED7006E50E44808004E50E44C0FF57
:060D6B00E4FD120B8422DE
:0A005100120D177F0A7E00020CCB8F
:100CFF00E4F53E120C767F4F120A00E4FF1208D380
:070D0F008F3E120CAFAF3E56
:010D160022BA
:100C93008F11120C767F4E120A007FFF120C33AFB6
:0C0CA30011120A007FFF120C33020CAF8C
:100D170053B1F743B20853B1EF43B2107F0A7E00D5
:080D2700120CCBD283D284220E
:100C760053B1F743B208D283D2847F287E00120D87
:0D0C860071C2837F287E00120D71C284228E
:100CAF0053B1F743B208C283C2847F287E00120D6E
:0C0CBF0071D283D2847F287E00020D7168
:0208D3008F355F
:1008D500753608E4F53743B10853B2F7C2847F147F
:1008E5007E00120D71D2847F147E00120D71E537E2
:1008F50025E0F53730830205377F0A7E00120D713A
:100905001536E536D3940050D3E5350470047FFFE2
:090915008002E4FF120C33AF373D
:01091E0022B6
:020A00008F1253
:100A020075130853B1F743B208C284E5125480C487
:100A120013131354016004D2838002C283E51225AA
:100A2200E0F5127F147E00120D71D2847F147E00D5
:100A3200120D71C2847F147E00120D711513E5131D
:050A4200D3940050C632
:010A4700228C
:100C3300C28453B1F743B208EF047004C283800245
:100C4300D2837F147E00120D71D2847F147E001232
:050C53000D71C28422B6
:100B0E00E4F53CF53D43B10853B2F7D2837F0AFEBC
:100B1E00120D71D2847F0A7E00120D713083190579
:100B2E003DE53D7002053CD394E8E53C648094833A
:0C0B3E0040EA120CAF7F0122C2847F004D
:010B4A002288
:100D7100D3EF9400EE9400400800EF1F70F21E8044
:020D8100EF225F
:100CCB00AD07AC06D3ED9400EC9400400EED1D7017
:0C0CDB00011C7FE87E03120D7180E922ED
:030000000205A254
:1005A20075C7AA75C75575FD5A75C7AA75C755751A
:1005B200FDA5787FE4F6D8FD9000007FFF7E03E47E
:0C05C200F0A3DFFCDEFA75813E020609A2
:10005E0002041FE86480F8E933E83360110460F0AD
:10006E00ED33EC337009E8FCE9FDEAFEEBFF220408
:10007E0060DED3EB9FEA9EE99DE8C2E78CF0C2F703
:10008E0095F0400CE8CCF8E9CDF9EACEFAEBCFFBCF
:10009E001203EA85D0F05804700320D5B3E804703B
:1000AE00075002B2D502042992D5EC0460F7E4CCD5
:1000BE00C0E0C398F8603B94186008400DD0E0FB98
:1000CE00020401E4FBFAC9FC8028E830E406E4C926
:1000DE00FBE4CAFCE830E305E4C9CACBFCE85407EC
:1000EE006010F8C3E913F9EA13FAEB13FBEC13FCF7
:1000FE00D8F130F52FC3E49CFCEF9BFFEE9AFEED9A
:10010E0099FDD0E0FBEF4E4D4C701222DB03020442
:10011E0026EC2CFCEF33FFEE33FEED33FDED30E736
:10012E00EB020401EF2BFFEE3AFEED39FDD0E0FBC2
:10013E0050130BBB0003020429ED13FDEE13FEEF6B
:08014E0013FFEC13FC02040195
:10015600EC4D6011E8497017ED33EC3304600DE4A3
:10016600FCFFFEFD22E933E8330470F802041F1297
:1001760003EA58046009E4CC248150062850090299
:100186000429284003020426C0E0EB4A7044B980E3
:1001960006D0E0FB020415EF4E701CBD8008EBFF95
:1001A600EAFEE9FD80EBE98DF0A4FEE5F002023FF0
:1001B600E9CDF9EAFEEBFFEF89F0A4FCE5F0CE8984
:1001C600F0A42EFFE435F0CD89F0A42DFEE435F041
:1001D6008067EF4E7005BD80D780C3EF8BF0A4AC6F
:1001E600F0EE8BF0A42CFCE435F0F8EF8AF0A42CAA
:1001F600E5F038FCE433CB8DF0A42CFCE5F03BF8BD
:10020600EE8AF0A42CFCE5F038F8E433CF89F0A4AC
:100216002CFCE5F038CF3400CE89F0A42FFFE5F0B2
:100226003EFEE433C98DF0A42EFEE5F039CD8AF00A
:10023600A42FFFE5F03EFEE43DFD33D0E0FB500782
:100246000BBB000F020429EC2CFCEF33FFEE33FE50
:06025600ED33FD0204017E
:10025C00020429EC5D046005E85904700302041FD4
:10026C001203EA580460F6EC4860F2EC7004FDFEF0
:10027C00FF22C860DB2481C85009C3986002500675
:10028C000204269850CAF582E9294B4A7005AB82C4
:10029C0002041575F0007C1A7880C3EF9BEE9AED82
:1002AC0099400DC3EF9BFFEE9AFEED99FDE842F0ED
:1002BC00DC23ACF0D0E0FFD0E0FED0E0FDAB822040
:1002CC00E7101BEB60BAEC2CFCEF33FFEE33FEEDCA
:1002DC0033FD020401E803F830E705C0F075F000C7
:1002EC00EF2FFFEE33FEED33FD40B830E7C280AAAE
:1002FC0074F8CC6480CCC86480C8F58204604FC3A9
:10030C00EB9FF5F0EA9E42F0E99D42F0E89C45F047
:10031C00603C501DE5825FFFE582D313CB5BCBF4D1
:10032C002B5582FB50280ABA002409B900200880FA
:10033C001DE5825BFBE582D313CF5FCFF4C3132F94
:10034C005582FF50090EBE00050DBD00010CC3EB1C
:10035C009FF5F0EA9E42F0E99D42F0E89C45F06082
:09036C0007CC4820E701B3EC22A4
:1003750075F020800E75F010800575F0087D007E03
:10038500007F003392D530D503120570EC33401051
:10039500EF33FFEE33FEED33FDEC33FCD5F0ED220C
:0E03A500E5F0247EA2D513CC92E7CDCEFF2248
:1003B300EDD2E7CD33EC3392D524814006E4FFFE42
:1003C300FDFC22FCE4CFCECDCC24E0501174FF80A1
:1003D300EDC3CC13CCCD13CDCE13CECF13CF04703E
:0703E300F030D5DE020570C9
:1003EA00E9D2E7C933E833F892D5EDD2E7CD33EC59
:0703FA0033FC5002B2D522D2
:10040100EC30E7100FBF000C0EBE00080DBD00045C
:100411000BEB6014A2D5EB13FCED92E7FD2274FF08
:10042100FCFDFEFF22E480F8A2D574FF13FC7D8061
:03043100E480EF75
:1005CE00020BB5E493A3F8E493A34003F68001F283
:1005DE0008DFF48029E493A3F85407240CC8C3332E
:1005EE00C4540F4420C8834004F456800146F6DFFD
:1005FE00E4800B0102040810204080900DB1E47ECF
:10060E00019360BCA3FF543F30E509541FFEE493F1
:10061E00A360010ECF54C025E060A840B8E493A3B8
:10062E00FAE493A3F8E493A3C8C582C8CAC583CAE3
:10063E00F0A3C8C582C8CAC583CADFE9DEE780BE9B
:010DB500003D
:10043400BB010689828A83E0225002E722BBFE02C6
:09044400E32289828A83E49322F9
:10044D00BC000BBE0029EF8DF084FFADF022E4CC93
:10045D00F875F008EF2FFFEE33FEEC33FCEE9DEC5C
:10046D00984005FCEE9DFE0FD5F0E9E4CEFD22EDA2
:10047D00F8F5F0EE8420D21CFEADF075F008EF2FEC
:10048D00FFED33FD4007985006D5F0F222C398FDDD
:05049D000FD5F0EA227A
:1004A20075F008758200EF2FFFEE33FECD33CDCC11
:1004B20033CCC58233C5829BED9AEC99E582984094
:1004C2000CF582EE9BFEED9AFDEC99FC0FD5F0D671
:1004D200E4CEFBE4CDFAE4CCF9A88222B800C1B99B
:1004E2000059BA002DEC8BF084CFCECDFCE5F0CBD9
:1004F200F97818EF2FFFEE33FEED33FDEC33FCEB12
:1005020033FB10D703994004EB99FB0FD8E5E4F9CC
:10051200FA227818EF2FFFEE33FEED33FDEC33FCB9
:10052200C933C910D7059BE99A4007EC9BFCE99AAD
:10053200F90FD8E0E4C9FAE4CCFB2275F010EF2FF2
:10054200FFEE33FEED33FDCC33CCC833C810D707F2
:100552009BEC9AE899400AED9BFDEC9AFCE899F82D
:0E0562000FD5F0DAE4CDFBE4CCFAE4C8F922C0
:0E057000C3E49FFFE49EFEE49DFDE49CFC229C
:10057E00EB9FF5F0EA9E42F0E99D42F0E89C45F0D3
:01058E00224A
:10058F00E8600FECC313FCED13FDEE13FEEF13FF4A
:03059F00D8F1226E
:00000001FF
