:1006D1004D4943524F4152454E4100535368616861
:1006E1007279696172004E75766F746F6E20382D64
:0F06F100626974207543004E3736453030330050
:10020400E4F52178227C00FD7BFF7A0679D1FE7F1C
:100214000B1200D3782D7C007D007BFF7A0679DCFD
:100224007E007F0B1200D378387C007D007BFF7A40
:100234000679E77E007F111200D378497C007D00A7
:100244007BFF7A0679F87E007F081200D31203E55B
:100254001207CAE4FD7F0312079F7B007A0079220C
:1002640012072C7D017F0312079F7B007A00792DF2
:1002740012072C7F1E7E007D007C001204E512070D
:10028400CAE4F521E4FDAF2112079F74382521F853
:10029400E6FF1207897F5A7E007D007C001205CAA2
:1002A4000521E521C3941040DB7F147E007D007C92
:1002B400001204E5E4F521E5212404FF7D01120781
:1002C4009F74492521F8E6FF1207897F5A7E007D35
:1002D400007C001205CA0521E521C3940740D87F9C
:1002E4001E7E007D007C001204E5E4F5211207CA9D
:1002F400E4FD7F0312079F7B007A00792212072C0A
:10030400AF2112044805217F047E007D007C001289
:0403140004E580EC90
:020448008F51D2
:10044A00E4F552E55175F064842430F5527D017F5C
:10045A000612079FAF52120789E55175F00A847593
:10046A00F00A84E5F02430F5527D017F0712079FD8
:10047A00AF52120789E55175F00A84E5F02430F588
:0D048A00527D017F0812079FAF52020789C3
:1006600053B1BF53B2BF53B17F53B27F759850435C
:100670008920438780438E1053C4DFAB07AA06A9A5
:1006800005A8047F407E427D0F7C0012014EEF04DE
:09069000F404F58DD28ED29922FA
:100318008F0B8E0A8D098C0853B1BF53B2BF53B1EE
:100328007F53B27F75985043878053C4F843C420E5
:10033800AB0BAA0AA909A8087F407E427D0F7C0062
:1003480012014EC374FF9FFF74FF9EFEE49DFDE4FF
:100358009CFC78081201F18FC6AB0BAA0AA909A860
:10036800087F407E427D0F7C0012014EC374FF9FC0
:09037800FF8FC543C408D299228D
:0707D8003098FDAF99C298B3
:0107DF0022F7
:0807E000C2998F993099FD22A6
:100381008F0F8E0E8D0D8C0C53B1FB53B2FB53B3FB
:10039100BF53B4BF75F85075C40853C4DFAB0FAA7F
:1003A1000EA90DA80C7F407E427D0F7C0012014EEC
:1003B100C374FF9FFF74FF9EFEE49DFDE49CFC78E7
:1003C100081201F18FC6AB0FAA0EA90DA80C7F4030
:1003D1007E427D0F7C0012014EC374FF9FFF8FC5CB
:0403E10043C40822E7
:0707E80030F8FDAF9AC2F8E2
:0107EF0022E7
:0807F000C2F98F9A30F9FD22D5
:10057F008F138E128D118C10538EF7438901D28CED
:10058F00E4FFFEFDFCAB13AA12A911A810C31201C0
:10059F00E06025758A7E758CFF308DFDC28DE51369
:1005AF0024FFF513E51234FFF512E51134FFF511B1
:0B05BF00E51034FFF51080C8C28C224C
:1005CA008F588E578D568C55538EF7438901D28C8E
:1005DA00E4FFFEFDFCAB58AA57A956A855C3120161
:1005EA00E06025758ACA758CFA308DFDC28DE55892
:1005FA0024FFF558E55734FFF557E55634FFF5560D
:0B060A00E55534FFF55580C8C28C2276
:100615008F178E168D158C14538EEF438910D28E3D
:10062500E4FFFEFDFCAB17AA16A915A814C3120119
:10063500E06025758BEA758DCB308FFDC28FE51790
:1006450024FFF517E51634FFF516E51534FFF51506
:0B065500E51434FFF51480C8C28E22AB
:100497008F1B8E1A8D198C1853C9BF53C9DF43C9D7
:1004A70010D2CAE4FFFEFDFCAB1BAA1AA919A818B3
:1004B700C31201E0602575CC3075CDF830CFFDC291
:1004C700CFE51B24FFF51BE51A34FFF51AE51934B0
:0E04D700FFF519E51834FFF51880C8C2CA22D7
:1004E5008F548E538D528C5175C40743C408E4FF55
:1004F500FEFDFCAB54AA53A952A851C31201E060FA
:100505002875C52C75C6CFE5C430E4FB53C4EFE5AB
:100515005424FFF554E55334FFF553E55234FFF504
:0D05250052E55134FFF55180C553C4F72253
:100532008F1F8E1E8D1D8C1C75C40743C408E4FFDB
:10054200FEFDFCAB1FAA1EA91DA81CC31201E06080
:100552002875C5D875C6FFE5C430E4FB53C4EFE582
:100562001F24FFF51FE51E34FFF51EE51D34FFF5C0
:0D0572001DE51C34FFF51C80C553C4F722A5
:0806990054F0FF53590F4259C0
:1006A1007E08AD59C282EED394004021ED5480C43E
:1006B1001313135401FF530701EF7004C28080022A
:0F06C100D280D281ED25E0FD1EC28180D9D28288
:0106D0002207
:1003E5007F0A7E007D007C001205CA53B1FE43B230
:1003F5000153B1FD43B20253B1FB43B2047F0A7E00
:10040500007D007C001205CA7559081206A17F0AF5
:100415007E007D007C001205CAE4FD7F3312077360
:10042500E4FD7F32120773E4FD7F28120773E4FDB4
:100435007F0C120773E4FD7F01120773E4FD7F064D
:0304450002077338
:100751004359081206A17F027E007D007C0012052C
:10076100CA5359F71206A17F027E007D007C000268
:0207710005CAB7
:10077300AC07ED14700543590480035359FB12066B
:06078300A1AF040207B55E
:0207B5008F545F
:1007B700E554120699120751E554540FC4120699CD
:0307C700020751D5
:10072C008B518A528953AB51AA52A9531200F960CA
:10073C00130553E5537002055214F91200F9FF1218
:05074C00078980E22294
:10078900C3EF648094A0400DD3EF648094FF5005BB
:060799007D01120773222E
:0E07CA00E4FD7F01120773E4FD7F0202077356
:10079F008F53ED7006E55344808004E55344C0FF4A
:0607AF00E4FD12077322B5
:03000000020700F4
:1007000075C7AA75C75575FD5A75C7AA75C75575BA
:10071000FDA5787FE4F6D8FD9000007FFF7E03E41E
:0C072000F0A3DFFCDEFA75815902020430
:10000300E709F608DFFA8046E709F208DFFA803EDF
:1000130088828C83E709F0A3DFFA8032E309F608CC
:10002300DFFA8078E309F208DFFA807088828C8334
:10003300E309F0A3DFFA806489828A83E0A3F608E8
:10004300DFFA805889828A83E0A3F208DFFA804CC2
:1000530080D280FA80C680D4806980F28033801099
:1000630080A680EA809A80A880DA80E280CA803302
:1000730089828A83ECFAE493A3C8C582C8CCC5837A
:10008300CCF0A3C8C582C8CCC583CCDFE9DEE7804A
:100093000D89828A83E493A3F608DFF9ECFAA9F0C9
:1000A300EDFB2289828A83ECFAE0A3C8C582C8CC1F
:1000B300C583CCF0A3C8C582C8CCC583CCDFEADE38
:1000C300E880DB89828A83E493A3F208DFF980CC9A
:1000D30088F0EF60010E4E60C388F0ED2402B40493
:1000E3000050B9F582EB2402B4040050AF2323453A
:0600F3008223900053730C
:1000F900BB010689828A83E0225002E722BBFE0205
:09010900E32289828A83E4932237
:1001120075F008758200EF2FFFEE33FECD33CDCCA4
:1001220033CCC58233C5829BED9AEC99E582984027
:100132000CF582EE9BFEED9AFDEC99FC0FD5F0D604
:10014200E4CEFBE4CDFAE4CCF9A88222B800C1B92E
:100152000059BA002DEC8BF084CFCECDFCE5F0CB6C
:10016200F97818EF2FFFEE33FEED33FDEC33FCEBA5
:1001720033FB10D703994004EB99FB0FD8E5E4F960
:10018200FA227818EF2FFFEE33FEED33FDEC33FC4D
:10019200C933C910D7059BE99A4007EC9BFCE99A41
:1001A200F90FD8E0E4C9FAE4CCFB2275F010EF2F86
:1001B200FFEE33FEED33FDCC33CCC833C810D70786
:1001C2009BEC9AE899400AED9BFDEC9AFCE899F8C1
:0E01D2000FD5F0DAE4CDFBE4CCFAE4C8F92254
:1001E000EB9FF5F0EA9E42F0E99D42F0E89C45F075
:0101F00022EC
:1001F100E8600FECC313FCED13FDEE13FEEF13FFEC
:03020100D8F1220F
:00000001FF
