:1007FA004849474800204C4F570041444320436F23
:10080A00756E743A00436D702053746174653A00D2
:04098600021E00004D
:03005B0002066436
:10066400C0E0C0F0C083C082C0D075D000C000C05C
:1006740001C002C003C004C005C006C0071208C8F8
:100684008E1E8F1FC2EFD007D006D005D004D00332
:10069400D002D001D000D0D0D082D083D0F0D0E02E
:0106A4003223
:1006E200120003D2EEAB1FAA1EE4FD7F0C12026AB7
:1006F2007D017F0C120926E5E27BFF30E40B7A07CD
:1007020079FA1207AED29580097A0779FF1207AEFD
:0B071200C2957F907E011208AC80C8E9
:1000030053B3DF43B42012061E12094EE4FDFF1260
:1000130009267BFF7A0879041207AE7D01E4FF12FB
:1000230009267BFF7A08790F1207AE43E80853E8E5
:10003300F843E10153E8F043E80443B12053B2DF4E
:10004300E4F5F643F61043E1017FFF7E0312081A3D
:0800530043E220D2AED2AF223D
:1008C800E4FEAFC3EFC4F8540FC868FFEEC454F099
:0708D80048FEADC2ED42072E
:0108DF0022F6
:10081A00AD07AC06EC540FFEED54F0FFEEC4F854ED
:0F082A00F0C8EFC4540F48F5CFED540FF5CE22B0
:10026A008F088D098A0A8B0B120926AE0AAF0B7CFE
:10027A00037DE8120077EF2430FF120910E5080425
:10028A00FFAD09120926AE0AAF0B7C037DE8120006
:10029A00777E007F64CFCDCFCECCCE120077EF240D
:1002AA0030FF120910E5082402FFAD09120926AE33
:1002BA000AAF0B7C007D641200777E007F0ACFCDE7
:1002CA00CFCECCCE120077EF2430FF120910E5080A
:1002DA002403FFAD09120926AE0AAF0B7C007D0A82
:0A02EA00120077ED2430FF02091026
:10071D0053B1BF53B2BF53B17F53B27F759850439E
:10072D008920438780438E1053C4DFAB07AA06A9E7
:10073D0005A8047F407E427D0F7C00120108EF0466
:09074D00F404F58DD28ED299223C
:1002F4008F158E148D138C1253B1BF53B2BF53B1EB
:100304007F53B27F75985043878053C4F843C42009
:10031400AB15AA14A913A8127F407E427D0F7C005E
:10032400120108C374FF9FFF74FF9EFEE49DFDE469
:100334009CFC78081201AB8FC6AB15AA14A913A8AC
:10034400127F407E427D0F7C00120108C374FF9F20
:09035400FF8FC543C408D29922B1
:070966003098FDAF99C29823
:01096D002267
:08096E00C2998F993099FD2216
:10035D008F198E188D178C1653B1FB53B2FB53B3F7
:10036D00BF53B4BF75F85075C40853C4DFAB19AA99
:10037D0018A917A8167F407E427D0F7C0012010838
:10038D00C374FF9FFF74FF9EFEE49DFDE49CFC780B
:10039D00081201AB8FC6AB19AA18A917A8167F4072
:1003AD007E427D0F7C00120108C374FF9FFF8FC535
:0403BD0043C408220B
:0709760030F8FDAF9AC2F852
:01097D002257
:08097E00C2F98F9A30F9FD2245
:1004F5008F1D8E1C8D1B8C1A538EF7438901D28C50
:10050500E4FFFEFDFCAB1DAA1CA91BA81AC3120122
:100515009A6025758A7E758CFF308DFDC28DE51D2F
:1005250024FFF51DE51C34FFF51CE51B34FFF51B09
:0B053500E51A34FFF51A80C8C28C22C2
:100540008F248E238D228C21538EF7438901D28CE8
:10055000E4FFFEFDFCAB24AA23A922A821C31201BB
:100560009A6025758ACA758CFA308DFDC28DE52496
:1005700024FFF524E52334FFF523E52234FFF5229B
:0B058000E52134FFF52180C8C28C2269
:10058B008F288E278D268C25538EEF438910D28E84
:10059B00E4FFFEFDFCAB28AA27A926A825C3120160
:1005AB009A6025758BEA758DCB308FFDC28FE52850
:1005BB0024FFF528E52734FFF527E52634FFF5263C
:0B05CB00E52534FFF52580C8C28E2214
:1003C1008F2C8E2B8D2A8C2953C9BF53C9DF43C96A
:1003D10010D2CAE4FFFEFDFCAB2CAA2BA92AA82946
:1003E100C312019A602575CC3075CDF830CFFDC2AE
:1003F100CFE52C24FFF52CE52B34FFF52BE52A3432
:0E040100FFF52AE52934FFF52980C8C2CA227A
:10040F008F308E2F8D2E8C2D75C40743C408E4FFBB
:10041F00FEFDFCAB30AA2FA92EA82DC312019A60A6
:10042F002875C52C75C6CFE5C430E4FB53C4EFE582
:10043F003024FFF530E52F34FFF52FE52E34FFF58F
:0D044F002EE52D34FFF52D80C553C4F72296
:10045C008F348E338D328C3175C40743C408E4FF5E
:10046C00FEFDFCAB34AA33A932A831C312019A6049
:10047C002875C5D875C6FFE5C430E4FB53C4EFE559
:10048C003424FFF534E53334FFF533E53234FFF52E
:0D049C0032E53134FFF53180C553C4F7223D
:10061E0012095C7F0A7E001208AC75390175380428
:10062E00AF381208747F0A7E001208ACE4FD7F33E7
:10063E00120756E4FD7F32120756E4FD7F2812079B
:10064E0056E4FD7F0C120756E4FD7F01120756E4B7
:06065E00FD7F06020756B5
:10083900433804AF381208747F017E001208AC53A4
:0E08490038F9AF381208747F017E000208AC47
:100756008F0DED1460080470085338F48003433895
:1007660001E539600814700843380880035338F7E8
:10077600AF38120874AF0D1207877F017E0002089A
:01078600ACC6
:020787008F0ED3
:10078900E50E54F053380F4238AF38120874120886
:1007990039E50E540FC454F053380F4238AF3812AC
:0507A90008740208398C
:1007AE008B088A09890AAB08050AE50AAA097002AC
:1007BE00050914F912005EFF120910AB08AA09A967
:0707CE000A12005E70E02238
:10091000C3EF648094A0400DD3EF648094FF500532
:060920007D0112075622C2
:0E094E00E4FD7F01120756E4FD7F020207560A
:100926008F0CED7006E50C44808004E50C44C0FF96
:06093600E4FD1207562249
:0A095C001208F87F0A7E000208ACC2
:1008E000E4F53C1208577F4F1205D6E4FF1204A925
:0708F0008F3C120890AF3CA1
:0108F70022DE
:100874008F0F1208577F4E1205D67FFF1207D5AF90
:0C0884000F1205D67FFF1207D502089066
:1008F80053B1F743B20853B1EF43B2107F0A7E00F9
:080908001208ACD283D2842254
:1008570053B1F743B208D283D2847F287E001209AE
:0D0867003CC2837F287E0012093CC284221F
:1008900053B1F743B208C283C2847F287E00120995
:0C08A0003CD283D2847F287E0002093CF9
:0204A9008F358D
:1004AB00753608E4F53743B10853B2F7C2847F14AD
:1004BB007E0012093CD2847F147E0012093CE53782
:1004CB0025E0F53730830205377F0A7E0012093CA1
:1004DB001536E536D3940050D3E5350470047FFF11
:0904EB008002E4FF1207D5AF37CF
:0104F40022E5
:0205D6008F1084
:1005D80075110853B1F743B208C284E5105480C4BA
:1005E80013131354016004D2838002C283E51025DB
:1005F800E0F5107F147E0012093CD2847F147E003F
:1006080012093CC2847F147E0012093C1511E511C1
:05061800D3940050C660
:01061D0022BA
:1007D500C28453B1F743B208EF047004C2838002A8
:1007E500D2837F147E0012093CD2847F147E0012CE
:0507F500093CC2842252
:1006A500E4F53AF53B43B10853B2F7D2837F0AFE2E
:1006B50012093CD2847F0A7E0012093C3083190559
:1006C5003BE53B7002053AD394E8E53A64809483B0
:0C06D50040EA1208907F0122C2847F00DE
:0106E10022F6
:10093C00D3EF9400EE9400400800EF1F70F21E807D
:02094C00EF2298
:1008AC00AD07AC06D3ED9400EC9400400EED1D703A
:0C08BC00011C7FE87E0312093C80E92249
:030000000201BE3C
:1001BE0075C7AA75C75575FD5A75C7AA75C7557502
:1001CE00FDA5787FE4F6D8FD9000007FFF7E03E466
:0C01DE00F0A3DFFCDEFA75813C02022574
:1001EA000206E2E493A3F8E493A34003F68001F243
:1001FA0008DFF48029E493A3F85407240CC8C33316
:10020A00C4540F4420C8834004F456800146F6DFE4
:10021A00E4800B0102040810204080900986E47EE5
:10022A00019360BCA3FF543F30E509541FFEE493D9
:10023A00A360010ECF54C025E060A840B8E493A3A0
:10024A00FAE493A3F8E493A3C8C582C8CAC583CACB
:10025A00F0A3C8C582C8CAC583CADFE9DEE780BE83
:01098A00006C
:10005E00BB010689828A83E0225002E722BBFE02A0
:09006E00E32289828A83E49322D3
:10007700BC000BBE0029EF8DF084FFADF022E4CC6D
:10008700F875F008EF2FFFEE33FEEC33FCEE9DEC36
:10009700984005FCEE9DFE0FD5F0E9E4CEFD22ED7C
:1000A700F8F5F0EE8420D21CFEADF075F008EF2FC6
:1000B700FFED33FD4007985006D5F0F222C398FDB7
:0500C7000FD5F0EA2254
:1000CC0075F008758200EF2FFFEE33FECD33CDCCEB
:1000DC0033CCC58233C5829BED9AEC99E58298406E
:1000EC000CF582EE9BFEED9AFDEC99FC0FD5F0D64B
:1000FC00E4CEFBE4CDFAE4CCF9A88222B800C1B975
:10010C000059BA002DEC8BF084CFCECDFCE5F0CBB2
:10011C00F97818EF2FFFEE33FEED33FDEC33FCEBEB
:10012C0033FB10D703994004EB99FB0FD8E5E4F9A6
:10013C00FA227818EF2FFFEE33FEED33FDEC33FC93
:10014C00C933C910D7059BE99A4007EC9BFCE99A87
:10015C00F90FD8E0E4C9FAE4CCFB2275F010EF2FCC
:10016C00FFEE33FEED33FDCC33CCC833C810D707CC
:10017C009BEC9AE899400AED9BFDEC9AFCE899F807
:0E018C000FD5F0DAE4CDFBE4CCFAE4C8F9229A
:10019A00EB9FF5F0EA9E42F0E99D42F0E89C45F0BB
:0101AA002232
:1001AB00E8600FECC313FCED13FDEE13FEEF13FF32
:0301BB00D8F12256
:00000001FF
