:0300030002000EEA
:03000E00D280326B
:0300130002049153
:03049100D28132E3
:100465001201D57FE87E037D007C0012036AC280FD
:04047500C28180EFD1
:1001D50053B1FE43B20153B1FD43B20243B3805361
:1001E500B47F43AC0153ADFEA2AF920075C7AA75AB
:1001F500C75575910143B38075C7AA75C755E4F511
:1002050091A20092AFA2AF920075C7AA75C75575A6
:10021500910143AC0175C7AA75C755F591A2009226
:0C022500AFD288D28AD2A8D2AAD2AF22CF
:1004000053B1BF53B2BF53B17F53B27F75985043BE
:100410008920438780438E1053C4DFAB07AA06A907
:1004200005A8047F407E427D0F7C00120052EF043D
:09043000F404F58DD28ED299225C
:100108008F0B8E0A8D098C0853B1BF53B2BF53B100
:100118007F53B27F75985043878053C4F843C420F7
:10012800AB0BAA0AA909A8087F407E427D0F7C0074
:10013800120052C374FF9FFF74FF9EFEE49DFDE40E
:100148009CFC78081200F58FC6AB0BAA0AA909A86F
:10015800087F407E427D0F7C00120052C374FF9FCF
:09016800FF8FC543C408D299229F
:070006003098FDAF99C2988C
:01000D0022D0
:08047900C2998F993099FD2210
:100171008F0F8E0E8D0D8C0C53B1FB53B2FB53B30D
:10018100BF53B4BF75F85075C40853C4DFAB0FAA91
:100191000EA90DA80C7F407E427D0F7C00120052FB
:1001A100C374FF9FFF74FF9EFEE49DFDE49CFC78F9
:1001B100081200F58FC6AB0FAA0EA90DA80C7F403F
:1001C1007E427D0F7C00120052C374FF9FFF8FC5DA
:0401D10043C40822F9
:0704810030F8FDAF9AC2F84C
:010488002251
:08048900C2F98F9A30F9FD223F
:10031F008F138E128D118C10538EF7438901D28C4F
:10032F00E4FFFEFDFCAB13AA12A911A810C3120023
:10033F00E46025758A7E758CFF308DFDC28DE513C7
:10034F0024FFF513E51234FFF512E51134FFF51113
:0B035F00E51034FFF51080C8C28C22AE
:10036A008F288E278D268C25538EF7438901D28CB0
:10037A00E4FFFEFDFCAB28AA27A926A825C3120084
:10038A00E46025758ACA758CFA308DFDC28DE52820
:10039A0024FFF528E52734FFF527E52634FFF5265F
:0B03AA00E52534FFF52580C8C28C2239
:1003B5008F178E168D158C14538EEF438910D28EA0
:1003C500E4FFFEFDFCAB17AA16A915A814C312007D
:1003D500E46025758BEA758DCB308FFDC28FE517EF
:1003E50024FFF517E51634FFF516E51534FFF51569
:0B03F500E51434FFF51480C8C28E220E
:1002D1008F1B8E1A8D198C1853C9BF53C9DF43C99F
:1002E10010D2CAE4FFFEFDFCAB1BAA1AA919A8187B
:1002F100C31200E4602575CC3075CDF830CFFDC256
:10030100CFE51B24FFF51BE51A34FFF51AE5193477
:0E031100FFF519E51834FFF51880C8C2CA229E
:100231008F1F8E1E8D1D8C1C75C40743C408E4FFDF
:10024100FEFDFCAB1FAA1EA91DA81CC31200E46081
:100251002B75C52C75C6CFE5C45410641070F853C6
:10026100C4EFE51F24FFF51FE51E34FFF51EE51D54
:1002710034FFF51DE51C34FFF51C80C253C4F72281
:100281008F248E238D228C2175C40743C408E4FF7B
:10029100FEFDFCAB24AA23A922A821C31200E4601D
:1002A1002B75C5D875C6FFE5C45410641070F8539A
:1002B100C4EFE52424FFF524E52334FFF523E522EB
:1002C10034FFF522E52134FFF52180C253C4F72222
:03000000020439BE
:1004390075C7AA75C75575FD5A75C7AA75C7557584
:10044900FDA5787FE4F6D8FD9000007FFF7E03E4E8
:0C045900F0A3DFFCDEFA758128020465C8
:1000160075F008758200EF2FFFEE33FECD33CDCCA1
:1000260033CCC58233C5829BED9AEC99E582984024
:100036000CF582EE9BFEED9AFDEC99FC0FD5F0D601
:10004600E4CEFBE4CDFAE4CCF9A88222B800C1B92B
:100056000059BA002DEC8BF084CFCECDFCE5F0CB69
:10006600F97818EF2FFFEE33FEED33FDEC33FCEBA2
:1000760033FB10D703994004EB99FB0FD8E5E4F95D
:10008600FA227818EF2FFFEE33FEED33FDEC33FC4A
:10009600C933C910D7059BE99A4007EC9BFCE99A3E
:1000A600F90FD8E0E4C9FAE4CCFB2275F010EF2F83
:1000B600FFEE33FEED33FDCC33CCC833C810D70783
:1000C6009BEC9AE899400AED9BFDEC9AFCE899F8BE
:0E00D6000FD5F0DAE4CDFBE4CCFAE4C8F92251
:1000E400EB9FF5F0EA9E42F0E99D42F0E89C45F072
:0100F40022E9
:1000F500E8600FECC313FCED13FDEE13FEEF13FFE9
:03010500D8F1220C
:00000001FF
