:0B088700454E4320436F756E743A002D
:0308BC00013A00FE
:03003B0002036558
:10036500C0E0C0D075D000C007C2AFE5ECB401163F
:10037500E5905403FFBF0202053AD3E53A64809441
:10038500E34003753A00E5ECB40216E5905403FF2B
:10039500BF0102153AC3E53A648094805003753A6B
:0D03A5006375EC00B295D007D0D0D0E032E7
:10079B00120607D2AFE53AFB3395E0FAE4FD7F0E84
:0C07AB001200037F287E001207EF80E799
:1006070043B30153B4FE43B30253B4FD53B3DF43C3
:10061700B42053E9FD43EA0153EBFE53E9F743EAFC
:100627000253EBFD43E901439B021205C11208790E
:0F063700E4FDFF1208517BFF7A08798702071450
:100003008F088D098A0A8B0B120851AE0AAF0B7C3D
:10001300007D0A120057EF2430FF12083BE5080465
:10002300FFAD09120851AE0AAF0B7C007D0A120026
:0800330057ED2430FF02083BE9
:1006830053B1BF53B2BF53B17F53B27F7598504339
:100693008920438780438E1053C4DFAB07AA06A982
:1006A30005A8047F407E427D0F7C001200E8EF0422
:0906B300F404F58DD28ED29922D7
:10024A008F158E148D138C1253B1BF53B2BF53B195
:10025A007F53B27F75985043878053C4F843C420B4
:10026A00AB15AA14A913A8127F407E427D0F7C0009
:10027A001200E8C374FF9FFF74FF9EFEE49DFDE435
:10028A009CFC780812018B8FC6AB15AA14A913A877
:10029A00127F407E427D0F7C001200E8C374FF9FEC
:0902AA00FF8FC543C408D299225C
:07089C003098FDAF99C298EE
:0108A3002232
:0808A400C2998F993099FD22E1
:1002B3008F198E188D178C1653B1FB53B2FB53B3A2
:1002C300BF53B4BF75F85075C40853C4DFAB19AA44
:1002D30018A917A8167F407E427D0F7C001200E804
:1002E300C374FF9FFF74FF9EFEE49DFDE49CFC78B6
:1002F3000812018B8FC6AB19AA18A917A8167F403D
:100303007E427D0F7C001200E8C374FF9FFF8FC500
:0403130043C40822B5
:0708AC0030F8FDAF9AC2F81D
:0108B3002222
:0808B400C2F98F9A30F9FD2210
:100498008F1D8E1C8D1B8C1A538EF7438901D28CAD
:1004A800E4FFFEFDFCAB1DAA1CA91BA81AC3120180
:1004B8007A6025758A7E758CFF308DFDC28DE51DAD
:1004C80024FFF51DE51C34FFF51CE51B34FFF51B67
:0B04D800E51A34FFF51A80C8C28C2220
:1004E3008F248E238D228C21538EF7438901D28C46
:1004F300E4FFFEFDFCAB24AA23A922A821C3120119
:100503007A6025758ACA758CFA308DFDC28DE52413
:1005130024FFF524E52334FFF523E52234FFF522F8
:0B052300E52134FFF52180C8C28C22C6
:10052E008F288E278D268C25538EEF438910D28EE1
:10053E00E4FFFEFDFCAB28AA27A926A825C31201BD
:10054E007A6025758BEA758DCB308FFDC28FE528CD
:10055E0024FFF528E52734FFF527E52634FFF52699
:0B056E00E52534FFF52580C8C28E2271
:100317008F2C8E2B8D2A8C2953C9BF53C9DF43C914
:1003270010D2CAE4FFFEFDFCAB2CAA2BA92AA829F0
:10033700C312017A602575CC3075CDF830CFFDC278
:10034700CFE52C24FFF52CE52B34FFF52BE52A34DC
:0E035700FFF52AE52934FFF52980C8C2CA2225
:1003B2008F308E2F8D2E8C2D75C40743C408E4FF19
:1003C200FEFDFCAB30AA2FA92EA82DC312017A6024
:1003D2002875C52C75C6CFE5C430E4FB53C4EFE5E0
:1003E2003024FFF530E52F34FFF52FE52E34FFF5ED
:0D03F2002EE52D34FFF52D80C553C4F722F4
:1003FF008F348E338D328C3175C40743C408E4FFBC
:10040F00FEFDFCAB34AA33A932A831C312017A60C6
:10041F002875C5D875C6FFE5C430E4FB53C4EFE5B6
:10042F003424FFF534E53334FFF533E53234FFF58B
:0D043F0032E53134FFF53180C553C4F7229A
:1005C1001208927F0A7E001207EF751F01751E0443
:1005D100AF1E1207B77F0A7E001207EFE4FD7F33DB
:1005E1001206BCE4FD7F321206BCE4FD7F28120630
:1005F100BCE4FD7F0C1206BCE4FD7F011206BCE4E5
:06060100FD7F060206BCAD
:10076000431E04AF1E1207B77F017E001207EF532E
:0E0770001EF9AF1E1207B77F017E000207EFD1
:1006BC008F0DED146008047008531EF48003431E64
:1006CC0001E51F6008147008431E088003531EF7D1
:1006DC00AF1E1207B7AF0D1206ED7F017E000207A9
:0106EC00EF1E
:0206ED008F0E6E
:1006EF00E50E54F0531E0F421EAF1E1207B712072E
:1006FF0060E50E540FC454F0531E0F421EAF1E126E
:05070F0007B7020760BE
:100714008B088A09890AAB08050AE50AAA09700246
:10072400050914F912003EFF12083BAB08AA09A9F7
:070734000A12003E70E022F2
:10083B00C3EF648094A0400DD3EF648094FF500508
:06084B007D011206BC2233
:0E087900E4FD7F011206BCE4FD7F020206BC16
:100851008F0CED7006E50C44808004E50C44C0FF6C
:06086100E4FD1206BC22BA
:0A0892001208237F0A7E000207EF20
:10080B00E4F53B12077E7F4F120579E4FF12044C8F
:07081B008F3B1207D3AF3B36
:0108220022B3
:1007B7008F0F12077E7F4E1205797FFF12073BAF1F
:0C07C7000F1205797FFF12073B0207D3D9
:1008230053B1F743B20853B1EF43B2107F0A7E00CE
:080833001207EFD283D28422E8
:10077E0053B1F743B208D283D2847F287E00120889
:0D078E0067C2837F287E00120867C28422A4
:1007D30053B1F743B208C283C2847F287E00120854
:0C07E30067D283D2847F287E0002086762
:02044C008F35EA
:10044E00753608E4F53743B10853B2F7C2847F140A
:10045E007E00120867D2847F147E00120867E5378B
:10046E0025E0F53730830205377F0A7E00120867D4
:10047E001536E536D3940050D3E5350470047FFF6E
:09048E008002E4FF12073BAF37C6
:010497002242
:020579008F10E1
:10057B0075110853B1F743B208C284E5105480C417
:10058B0013131354016004D2838002C283E5102538
:10059B00E0F5107F147E00120867D2847F147E0072
:1005AB00120867C2847F147E001208671511E511CB
:0505BB00D3940050C6BE
:0105C0002218
:10073B00C28453B1F743B208EF047004C283800242
:10074B00D2837F147E00120867D2847F147E00123E
:05075B000867C28422C2
:10064600E4F538F53943B10853B2F7D2837F0AFE91
:10065600120867D2847F0A7E001208673083190564
:1006660039E53970020538D394E8E5386480948317
:0C06760040EA1207D37F0122C2847F00FB
:010682002255
:10086700D3EF9400EE9400400800EF1F70F21E8053
:02087700EF226E
:1007EF00AD07AC06D3ED9400EC9400400EED1D70F8
:0C07FF00011C7FE87E0312086780E922DD
:0300000002019E5C
:10019E0075C7AA75C75575FD5A75C7AA75C7557522
:1001AE00FDA5787FE4F6D8FD9000007FFF7E03E486
:0C01BE00F0A3DFFCDEFA75813B020205B5
:1001CA0002079BE493A3F8E493A34003F68001F2A9
:1001DA0008DFF48029E493A3F85407240CC8C33336
:1001EA00C4540F4420C8834004F456800146F6DF05
:1001FA00E4800B01020408102040809008BCE47ED1
:10020A00019360BCA3FF543F30E509541FFEE493F9
:10021A00A360010ECF54C025E060A840B8E493A3C0
:10022A00FAE493A3F8E493A3C8C582C8CAC583CAEB
:10023A00F0A3C8C582C8CAC583CADFE9DEE780BEA3
:0108BF000038
:10003E00BB010689828A83E0225002E722BBFE02C0
:09004E00E32289828A83E49322F3
:10005700BC000BBE0029EF8DF084FFADF022E4CC8D
:10006700F875F008EF2FFFEE33FEEC33FCEE9DEC56
:10007700984005FCEE9DFE0FD5F0E9E4CEFD22ED9C
:10008700F8F5F0EE8420D21CFEADF075F008EF2FE6
:10009700FFED33FD4007985006D5F0F222C398FDD7
:0500A7000FD5F0EA2274
:1000AC0075F008758200EF2FFFEE33FECD33CDCC0B
:1000BC0033CCC58233C5829BED9AEC99E58298408E
:1000CC000CF582EE9BFEED9AFDEC99FC0FD5F0D66B
:1000DC00E4CEFBE4CDFAE4CCF9A88222B800C1B995
:1000EC000059BA002DEC8BF084CFCECDFCE5F0CBD3
:1000FC00F97818EF2FFFEE33FEED33FDEC33FCEB0C
:10010C0033FB10D703994004EB99FB0FD8E5E4F9C6
:10011C00FA227818EF2FFFEE33FEED33FDEC33FCB3
:10012C00C933C910D7059BE99A4007EC9BFCE99AA7
:10013C00F90FD8E0E4C9FAE4CCFB2275F010EF2FEC
:10014C00FFEE33FEED33FDCC33CCC833C810D707EC
:10015C009BEC9AE899400AED9BFDEC9AFCE899F827
:0E016C000FD5F0DAE4CDFBE4CCFAE4C8F922BA
:10017A00EB9FF5F0EA9E42F0E99D42F0E89C45F0DB
:01018A002252
:10018B00E8600FECC313FCED13FDEE13FEEF13FF52
:03019B00D8F12276
:00000001FF
