:1007A8004D4943524F4152454E4100535368616889
:1007B8007279696172004E75766F746F6E20382D8C
:0F07C800626974207543004E3736453030330078
:10020400E4F52178227C00FD7BFF7A0779A8FE7F44
:100214000B1200D3782D7C007D007BFF7A0779B325
:100224007E007F0B1200D378387C007D007BFF7A40
:100234000779BE7E007F111200D378497C007D00CF
:100244007BFF7A0779CF7E007F081200D312052E38
:10025400120969E4FD7F031209537B007A007922B5
:100264001208577D017F031209537B007A00792D10
:100274001208577F1E7E007D007C0012057C120947
:1002840069E4F521E4FDAF2112095374382521F8FE
:10029400E6FF12093D7F5A7E007D007C0012066154
:1002A4000521E521C3941040DB7F147E007D007C92
:1002B4000012057CE4F521E5212404FF7D011209E7
:1002C4005374492521F8E6FF12093D7F5A7E007DCB
:1002D400007C001206610521E521C3940740D87F04
:1002E4001E7E007D007C0012057CE4F52112096964
:1002F400E4FD7F031209537B007A00792212085728
:10030400AF2112049105217F047E007D007C001240
:04031400057C80ECF8
:020491008F5189
:10049300E4F552E55175F064842430F5527D017F13
:1004A30006120953AF5212093DE55175F00A8475DE
:1004B300F00A84E5F02430F5527D017F07120953D9
:1004C300AF5212093DE55175F00A84E5F02430F589
:0D04D300527D017F08120953AF5202093D0E
:10073A0053B1BF53B2BF53B17F53B27F7598504381
:10074A008920438780438E1053C4DFAB07AA06A9CA
:10075A0005A8047F407E427D0F7C0012014EEF0403
:09076A00F404F58DD28ED299221F
:100318008F0B8E0A8D098C0853B1BF53B2BF53B1EE
:100328007F53B27F75985043878053C4F843C420E5
:10033800AB0BAA0AA909A8087F407E427D0F7C0062
:1003480012014EC374FF9FFF74FF9EFEE49DFDE4FF
:100358009CFC78081201F18FC6AB0BAA0AA909A860
:10036800087F407E427D0F7C0012014EC374FF9FC0
:09037800FF8FC543C408D299228D
:070985003098FDAF99C29804
:01098C002248
:08098D00C2998F993099FD22F7
:100381008F0F8E0E8D0D8C0C53B1FB53B2FB53B3FB
:10039100BF53B4BF75F85075C40853C4DFAB0FAA7F
:1003A1000EA90DA80C7F407E427D0F7C0012014EEC
:1003B100C374FF9FFF74FF9EFEE49DFDE49CFC78E7
:1003C100081201F18FC6AB0FAA0EA90DA80C7F4030
:1003D1007E427D0F7C0012014EC374FF9FFF8FC5CB
:0403E10043C40822E7
:0709950030F8FDAF9AC2F833
:01099C002238
:08099D00C2F98F9A30F9FD2226
:100616008F548E538D528C51538EF7438901D28C51
:10062600E4FFFEFDFCAB54AA53A952A851C3120124
:10063600E06025758A7E758CFF308DFDC28DE55490
:1006460024FFF554E55334FFF553E55234FFF552D4
:0B065600E55134FFF55180C8C28C2232
:100661008F598E588D578C56538EF7438901D28CF2
:10067100E4FFFEFDFCAB59AA58A957A856C31201C5
:10068100E06025758ACA758CFA308DFDC28DE559F9
:1006910024FFF559E55834FFF558E55734FFF55770
:0B06A100E55634FFF55680C8C28C22DD
:1006AC008F138E128D118C10538EEF438910D28EB6
:1006BC00E4FFFEFDFCAB13AA12A911A810C3120192
:1006CC00E06025758BEA758DCB308FFDC28FE513FD
:1006DC0024FFF513E51234FFF512E51134FFF51183
:0B06EC00E51034FFF51080C8C28E221C
:1004E0008F178E168D158C1453C9BF53C9DF43C99E
:1004F00010D2CAE4FFFEFDFCAB17AA16A915A8147A
:10050000C31201E0602575CC3075CDF830CFFDC247
:10051000CFE51724FFF517E51634FFF516E515347A
:0E052000FFF515E51434FFF51480C8C2CA2299
:10057C008F548E538D528C5175C40743C408E4FFBD
:10058C00FEFDFCAB54AA53A952A851C31201E06062
:10059C002875C52C75C6CFE5C430E4FB53C4EFE514
:1005AC005424FFF554E55334FFF553E55234FFF56D
:0D05BC0052E55134FFF55180C553C4F722BC
:1005C9008F5C8E5B8D5A8C5975C40743C408E4FF50
:1005D900FEFDFCAB5CAA5BA95AA859C31201E060F5
:1005E9002875C5D875C6FFE5C430E4FB53C4EFE5EB
:1005F9005C24FFF55CE55B34FFF55BE55A34FFF5F8
:0D0609005AE55934FFF55980C553C4F72256
:10052E001209777F0A7E007D007C00120661751C21
:10053E0001751B04AF1B1208ED7F0A7E007D007C47
:10054E0000120661E4FD7F33120773E4FD7F321261
:10055E000773E4FD7F28120773E4FD7F0C12077307
:0E056E00E4FD7F01120773E4FD7F06020773B0
:10087E00431B04AF1B1208ED7F017E007D007C0040
:10088E00120661531BF9AF1B1208ED7F017E007D2E
:06089E00007C000206616F
:100773008F54ED146008047008531BF48003431B6B
:1007830001E51C6008147008431B088003531BF722
:10079300AF1B1208EDAF541208307F017E007D00BD
:0507A3007C000206616C
:020830008F55E2
:10083200E55554F0531B0F421BAF1B1208ED120873
:100842007EE555540FC454F0531B0F421BAF1B12CD
:0508520008ED02087E24
:100857008B518A528953AB510553E553AA52700203
:10086700055214F91200F9FF12093DAB51AA52A91A
:07087700531200F970E022AA
:10093D00C3EF648094A0400DD3EF648094FF500505
:06094D007D011207732278
:0E096900E4FD7F01120773E4FD7F02020773B5
:100953008F53ED7006E55344808004E55344C0FF94
:06096300E4FD12077322FF
:0E0977001209097F147E007D007C00020661DB
:10092500E4F51F1208A47F4F12043DE4FF1203E50E
:070935008F1F1208C9AF1F5C
:01093C002298
:1008ED008F561208A47F4E12043D7FFF1207D7AF1B
:0C08FD005612043D7FFF1207D70208C905
:1009090053B1F743B20853B1EF43B2107F017E00F0
:0C0919007D007C00120616D283D28422DE
:1008A40053B1F743B208D283D2847F047E007D0023
:1008B4007C001205C9C2837F047E007D007C001287
:0508C40005C9C28422F9
:1008C90053B1F743B208C283C2847F047E007D001E
:1008D9007C001205C9D283D2847F047E007D007C0E
:0408E900000205C93B
:0203E5008F186F
:1003E700751908E4F51A43B10853B2F7C2847F02BE
:1003F7007E007D007C001205C9D2847F027E007DCD
:10040700007C001205C9E51A25E0F51A30830205BC
:100417001A7F017E007D007C001205C91519E519B8
:10042700D3940050C7E5180470047FFF8002E4FFEF
:050437001207D7AF1A07
:01043C00229D
:02043D008F57D7
:10043F0075580853B1F743B208C284E5575480C4C6
:10044F0013131354016004D2838002C283E557252E
:10045F00E0F5577F027E007D007C001205C9D28433
:10046F007F027E007D007C001205C9C2847F027E60
:10047F00007D007C001205C91558E558D394005033
:01048F00BAB2
:010490002249
:1007D700C28453B1F743B208EF047004C2838002A6
:1007E700D2837F027E007D007C001205C9D2847F00
:0D07F700027E007D007C001205C9C2842234
:1006F700E4F51DF51E43B10853B2F7D2837F01FE1F
:10070700FDFC1205C9D2847F017E007D007C0012AA
:1007170005C9308319051EE51E7002051DD394E82F
:10072700E51D6480948340EA1208C97F0122C284D0
:020737007F0041
:01073900229D
:03000000020804EF
:1008040075C7AA75C75575FD5A75C7AA75C75575B5
:10081400FDA5787FE4F6D8FD9000007FFF7E03E419
:0C082400F0A3DFFCDEFA75815C02020428
:10000300E709F608DFFA8046E709F208DFFA803EDF
:1000130088828C83E709F0A3DFFA8032E309F608CC
:10002300DFFA8078E309F208DFFA807088828C8334
:10003300E309F0A3DFFA806489828A83E0A3F608E8
:10004300DFFA805889828A83E0A3F208DFFA804CC2
:1000530080D280FA80C680D4806980F28033801099
:1000630080A680EA809A80A880DA80E280CA803302
:1000730089828A83ECFAE493A3C8C582C8CCC5837A
:10008300CCF0A3C8C582C8CCC583CCDFE9DEE7804A
:100093000D89828A83E493A3F608DFF9ECFAA9F0C9
:1000A300EDFB2289828A83ECFAE0A3C8C582C8CC1F
:1000B300C583CCF0A3C8C582C8CCC583CCDFEADE38
:1000C300E880DB89828A83E493A3F208DFF980CC9A
:1000D30088F0EF60010E4E60C388F0ED2402B40493
:1000E3000050B9F582EB2402B4040050AF2323453A
:0600F3008223900053730C
:1000F900BB010689828A83E0225002E722BBFE0205
:09010900E32289828A83E4932237
:1001120075F008758200EF2FFFEE33FECD33CDCCA4
:1001220033CCC58233C5829BED9AEC99E582984027
:100132000CF582EE9BFEED9AFDEC99FC0FD5F0D604
:10014200E4CEFBE4CDFAE4CCF9A88222B800C1B92E
:100152000059BA002DEC8BF084CFCECDFCE5F0CB6C
:10016200F97818EF2FFFEE33FEED33FDEC33FCEBA5
:1001720033FB10D703994004EB99FB0FD8E5E4F960
:10018200FA227818EF2FFFEE33FEED33FDEC33FC4D
:10019200C933C910D7059BE99A4007EC9BFCE99A41
:1001A200F90FD8E0E4C9FAE4CCFB2275F010EF2F86
:1001B200FFEE33FEED33FDCC33CCC833C810D70786
:1001C2009BEC9AE899400AED9BFDEC9AFCE899F8C1
:0E01D2000FD5F0DAE4CDFBE4CCFAE4C8F92254
:1001E000EB9FF5F0EA9E42F0E99D42F0E89C45F075
:0101F00022EC
:1001F100E8600FECC313FCED13FDEE13FEEF13FFEC
:03020100D8F1220F
:00000001FF
