:1004ED00E4F508F509F50AF50BF50C53B3DF43B444
:1004FD00201209D8120944D29553F3F743F3047B24
:10050D00007A0079091204348F087D02AF0AAE0912
:10051D0012059512023F8E0B8F0C7F647E0012091F
:10052D00A3C29553F3F753F3FBAE0BAF0C7C037DD6
:10053D00E81202C07C007D0A1202C07F041209BFBE
:10054D00AE0BAF0C7C007D641202C07C007D0A12E4
:10055D0002C07F031209BFAE0BAF0C7C007D0A12E7
:10056D0002C07C007D0A1202C07F021209BFAE0BD1
:10057D00AF0C7C007D0A1202C07F011209BF7F649F
:08058D007E001209A30205041F
:1008A30053B1BF53B2BF53B17F53B27F7598504317
:1008B3008920438780438E1053C4DFAB07AA06A960
:1008C30005A8047F407E427D0F7C00120370EF0475
:0908D300F404F58DD28ED29922B5
:10060D008F248E238D228C2153B1BF53B2BF53B192
:10061D007F53B27F75985043878053C4F843C420ED
:10062D00AB24AA23A922A8217F407E427D0F7C0006
:10063D00120370C374FF9FFF74FF9EFEE49DFDE4E3
:10064D009CFC78081204218FC6AB24AA23A922A8EA
:10065D00217F407E427D0F7C00120370C374FF9F8B
:09066D00FF8FC543C408D2992295
:070A01003098FDAF99C29887
:010A080022CB
:080A0900C2998F993099FD227A
:100676008F288E278D268C2553B1FB53B2FB53B39F
:10068600BF53B4BF75F85075C40853C4DFAB28AA6E
:1006960027A926A8257F407E427D0F7C0012037085
:1006A600C374FF9FFF74FF9EFEE49DFDE49CFC78EF
:1006B600081204218FC6AB28AA27A926A8257F40A1
:1006C6007E427D0F7C00120370C374FF9FFF8FC5AF
:0406D60043C40822EF
:070A110030F8FDAF9AC2F8B6
:010A180022BB
:080A1900C2F98F9A30F9FD22A9
:1007C2008F2C8E2B8D2A8C29538EF7438901D28C44
:1007D200E4FFFEFDFCAB2CAA2BA92AA829C3120414
:1007E200106025758A7E758CFF308DFDC28DE52CDB
:1007F20024FFF52CE52B34FFF52BE52A34FFF52AEF
:0B080200E52934FFF52980C8C28C22D4
:10080D008F1C8E1B8D1A8C19538EF7438901D28C38
:10081D00E4FFFEFDFCAB1CAA1BA91AA819C3120408
:10082D00106025758ACA758CFA308DFDC28DE51C58
:10083D0024FFF51CE51B34FFF51BE51A34FFF51AF3
:0B084D00E51934FFF51980C8C28C22A9
:100858008F308E2F8D2E8C2D538EEF438910D28E94
:10086800E4FFFEFDFCAB30AA2FA92EA82DC312046D
:10087800106025758BEA758DCB308FFDC28FE53002
:1008880024FFF530E52F34FFF52FE52E34FFF52E44
:0B089800E52D34FFF52D80C8C28E2234
:1006DA008F348E338D328C3153C9BF53C9DF43C92E
:1006EA0010D2CAE4FFFEFDFCAB34AA33A932A8310A
:1006FA00C3120410602575CC3075CDF830CFFDC219
:10070A00CFE53424FFF534E53334FFF533E53234ED
:0E071A00FFF532E53134FFF53180C8C2CA2246
:100728008F388E378D368C3575C40743C408E4FF7F
:10073800FEFDFCAB38AA37A936A835C312041060F1
:100748002875C52C75C6CFE5C430E4FB53C4EFE566
:100758003824FFF538E53734FFF537E53634FFF54B
:0D07680036E53534FFF53580C553C4F72262
:100775008F3C8E3B8D3A8C3975C40743C408E4FF22
:10078500FEFDFCAB3CAA3BA93AA839C31204106094
:100795002875C5D875C6FFE5C430E4FB53C4EFE53D
:1007A5003C24FFF53CE53B34FFF53BE53A34FFF5EA
:0D07B5003AE53934FFF53980C553C4F72209
:1009EF00D3EF9400EE9400400800EF1F70F21E80CA
:0209FF00EF22E5
:1009A300AD07AC06D3ED9400EC9400400EED1D7042
:0C09B300011C7FE87E031209EF80E9229E
:1008DC00EF24FE600C14600E2402701253F3FD80A2
:1008EC000843F302800B43F30243F301800653F3F6
:1008FC00FD53F3FE43F40843F31053F3F753F3FBA8
:04090C0043F340224F
:1009440053B1FE43B20153B3FE43B40153B3FD4369
:10095400B402E4FF1208DC7D017F0C1209BF7D0F95
:100964007F091209BF7D037F0B1209BF7D197F0A1E
:030974000209BFB6
:1009BF00C2918FF5E5F430E7FB53F47F8DF5E5F445
:0909CF0030E7FB53F47FD29122C2
:10091000EF24FE600C14600E2402701253F3FD806D
:100920000843F302800B43F30243F301800653F3C1
:10093000FD53F3FE43F40843F31053F3F743F3047A
:0409400043F340221B
:1009D80043B10253B2FD53B3FE43B40153B3FB43D7
:0709E800B404E4FF02091052
:060434008B0D8A0E890FFA
:10043A00E4F510F511751210F513F514F518F51702
:10044A00F516F515E512D394004058C292E4F5F575
:10045A00E5F430E7FB85F51153F47FE4F5F5E5F4AF
:10046A0030E7FB85F51053F47FD29275130085119E
:10047A0014E514751400F513E5104214E453137FC0
:10048A00FCFDE5182514F518E5173513F517ED35B4
:10049A0016F516EC3515F51515127F0A7E001208A9
:1004AA000D80A1AF18AE17AD16AC15780412042151
:1004BA008E138F14E51420E2197803CEC313CE13DA
:1004CA00D8F9FFAB0DAA0EA90FEE8FF01203157F14
:1004DA000022AB0DAA0EA90F741075F001120315B4
:0204EA007F048D
:0104EC0022ED
:060595008D0DAB07AA0664
:10059B00E4F511F510F50FF50EAD07AC06120206DA
:1005AB00E4FBFA7980783E1200FB8F118E108D0FD1
:1005BB008C0EE50D24FE602604703EAF11AE10AD1F
:1005CB000FAC0E7B667A6679E6783F1200FB8F11D3
:1005DB008E108D0F8C0EE4FBFAF978428010AF1160
:1005EB00AE10AD0FAC0E7B007A8079887843120089
:1005FB000A8F118E108D0F8C0EAF11AE10AD0FAC8C
:01060B000EE0
:01060C0022CB
:030000000209777B
:1009770075C7AA75C75575FD5A75C7AA75C7557541
:10098700FDA5787FE4F6D8FD9000007FFF7E03E4A5
:0C099700F0A3DFFCDEFA75813C0204EDE9
:100003000202ABE86480F8E933E83360110460F07E
:10001300ED33EC337009E8FCE9FDEAFEEBFF220463
:1000230060DED3EB9FEA9EE99DE8C2E78CF0C2F75E
:1000330095F0400CE8CCF8E9CDF9EACEFAEBCFFB2A
:1000430012027685D0F05804700320D5B3E804700B
:10005300075002B2D50202B592D5EC0460F7E4CCA6
:10006300C0E0C398F8603B94186008400DD0E0FBF3
:1000730002028DE4FBFAC9FC8028E830E406E4C9F7
:10008300FBE4CAFCE830E305E4C9CACBFCE8540747
:100093006010F8C3E913F9EA13FAEB13FBEC13FC52
:1000A300D8F130F52FC3E49CFCEF9BFFEE9AFEEDF5
:1000B30099FDD0E0FBEF4E4D4C701222DB030202A0
:1000C300B2EC2CFCEF33FFEE33FEED33FDED30E706
:1000D300EB02028DEF2BFFEE3AFEED39FDD0E0FB94
:1000E30050130BBB00030202B5ED13FDEE13FEEF3D
:0800F30013FFEC13FC02028D67
:1000FB00EC4D6011E8497017ED33EC3304600DE4FF
:10010B00FCFFFEFD22E933E8330470F80202AB1268
:10011B00027658046009E4CC248150062850090269
:10012B0002B52840030202B2C0E0EB4A7044B9802A
:10013B0006D0E0FB0202A1EF4E701CBD8008EBFF66
:10014B00EAFEE9FD80EBE98DF0A4FEE5F00201E4A7
:10015B00E9CDF9EAFEEBFFEF89F0A4FCE5F0CE89DF
:10016B00F0A42EFFE435F0CD89F0A42DFEE435F09C
:10017B008067EF4E7005BD80D780C3EF8BF0A4ACCA
:10018B00F0EE8BF0A42CFCE435F0F8EF8AF0A42C05
:10019B00E5F038FCE433CB8DF0A42CFCE5F03BF818
:1001AB00EE8AF0A42CFCE5F038F8E433CF89F0A408
:1001BB002CFCE5F038CF3400CE89F0A42FFFE5F00E
:1001CB003EFEE433C98DF0A42EFEE5F039CD8AF066
:1001DB00A42FFFE5F03EFEE43DFD33D0E0FB5007DE
:1001EB000BBB000F0202B5EC2CFCEF33FFEE33FE22
:0601FB00ED33FD02028D50
:1002010075F020800E75F010800575F0087D007E78
:10021100007F003392D530D503120402EC33401035
:10022100EF33FFEE33FEED33FDEC33FCD5F0ED2281
:0E023100E5F0247EA2D513CC92E7CDCEFF22BD
:10023F00EDD2E7CD33EC3392D524814006E4FFFEB7
:10024F00FDFC22FCE4CFCECDCC24E0501174FF8016
:10025F00EDC3CC13CCCD13CDCE13CECF13CF0470B3
:07026F00F030D5DE020402AD
:10027600E9D2E7C933E833F892D5EDD2E7CD33ECCE
:0702860033FC5002B2D52247
:10028D00EC30E7100FBF000C0EBE00080DBD0004D2
:10029D000BEB6014A2D5EB13FCED92E7FD2274FF7E
:1002AD00FCFDFEFF22E480F8A2D574FF13FC7D80D7
:0302BD00E480EFEB
:1002C000BC000BBE0029EF8DF084FFADF022E4CC22
:1002D000F875F008EF2FFFEE33FEEC33FCEE9DECEB
:1002E000984005FCEE9DFE0FD5F0E9E4CEFD22ED31
:1002F000F8F5F0EE8420D21CFEADF075F008EF2F7B
:10030000FFED33FD4007985006D5F0F222C398FD6B
:050310000FD5F0EA2208
:10031500BB010A89828A83F0E5F0A3F0225006F733
:0F03250009A7F01922BBFE06F3E5F009F3192230
:1003340075F008758200EF2FFFEE33FECD33CDCC80
:1003440033CCC58233C5829BED9AEC99E582984003
:100354000CF582EE9BFEED9AFDEC99FC0FD5F0D6E0
:10036400E4CEFBE4CDFAE4CCF9A88222B800C1B90A
:100374000059BA002DEC8BF084CFCECDFCE5F0CB48
:10038400F97818EF2FFFEE33FEED33FDEC33FCEB81
:1003940033FB10D703994004EB99FB0FD8E5E4F93C
:1003A400FA227818EF2FFFEE33FEED33FDEC33FC29
:1003B400C933C910D7059BE99A4007EC9BFCE99A1D
:1003C400F90FD8E0E4C9FAE4CCFB2275F010EF2F62
:1003D400FFEE33FEED33FDCC33CCC833C810D70762
:1003E4009BEC9AE899400AED9BFDEC9AFCE899F89D
:0E03F4000FD5F0DAE4CDFBE4CCFAE4C8F92230
:0E040200C3E49FFFE49EFEE49DFDE49CFC220B
:10041000EB9FF5F0EA9E42F0E99D42F0E89C45F042
:0104200022B9
:10042100E8600FECC313FCED13FDEE13FEEF13FFB9
:03043100D8F122DD
:00000001FF
