:100A87004E7520467265712E204D6574657200465D
:090A97007265712E2F487A3A00B5
:100AA000041400000000040800000000040C000012
:080AB00000000410000000002A
:03001B0002093D9A
:10093D00C0E0C0F0C083C082C0D075D000C000C080
:10094D0001C002C003C004C005C006C007E4FFFE1D
:10095D00120B10D007D006D005D004D003D002D092
:0E096D0001D000D0D0D082D083D0F0D0E032C4
:03002B00020A497D
:100A4900C0E0C0D0C2CFE5172401F517E43516F58B
:100A590016E43515F515E43514F514D0D0D0E03287
:030063000205266D
:10052600C0E0C0D075D000C000C004C005C006C081
:1005360007E59220E0030205BD5392FEAFE5E48F86
:1005460013F512F511F510AE12AD11AC10780812B4
:1005560002DE8F138E128D118C10AFE4E5134FF56A
:1005660013E512F512E511F511E510F510AF17AE0A
:1005760016AD15AC1478101202DEC3EF950FFFEE20
:10058600950EFEED950DFDEC950CFCEF2513F50B88
:10059600EE3512F50AED3511F509EC3510F508853D
:1005A600130F85120E85110D85100C751700751623
:1005B60000751500751400D007D006D005D004D0FC
:0605C60000D0D0D0E032AD
:1005CC00E4F524F523F522F521120A69120711121C
:1005DC000B20E4FD7F01120AE57BFF7A0A79871272
:1005EC00002E7D01E4FF120AE57BFF7A0A79961250
:1005FC00002EAF0BAE0AAD09AC08E4120106A8043C
:10060C00A905AA06AB077F007E247DF47C4A120064
:10061C00698F248E238D228C211201448F2A8E29DE
:10062C008D288C277D017F0B1202F17F647E007D6B
:08063C00007C001208A780BA3F
:100A69007F0212097BE4FF1203CE7F01120B5A1297
:0E0A7900001E120053120003120B2ED2AF22E9
:1003CE00EF24FE6014047060A2AF9200C2AF75C736
:1003DE00AA75C7554396048076A2AF9200C2AF7538
:1003EE00C7AA75C755439780A20092AFA2AF9200DD
:1003FE00C2AF75C7AA75C755439740A20092AFE525
:10040E009630E3FBA2AF9200C2AF75C7AA75C7556F
:10041E005396FBA20092AFA2AF9200C2AF75C7AACD
:10042E0075C755439602803AA2AF9200C2AF75C708
:10043E00AA75C755439720A20092AFE59630E5FB0B
:10044E00A2AF9200C2AF75C7AA75C7555396FBA24D
:10045E000092AFA2AF9200C2AF75C7AA75C755532F
:0C046E0096FDA20092AFE59720E0FB2273
:10097B00EF7011A2AF9200C2AF75C7AA75C75553DE
:10098B0097DF8022A2AF9200C2AF75C7AA75C75579
:10099B0053977FA20092AFA2AF9200C2AF75C7AAC6
:0B09AB0075C7555397BFA20092AF2202
:030B5A008F952252
:0D001E0053B1FE43B20143B30453B4FB22BF
:10000300438E1053890F438910E4FFFE120B1043F4
:07001300B508D28ED2AB222A
:0C0B2E0053C8FEE4F5C9D2CA439B8022E4
:100053005393FC53F1F0439210439410439B0422B7
:100B1000AD07AC06ED4C7E00EEFF8F8DEDF58B2220
:1002F1008F258D26120AE5E47B107A27F9F8AF2ABB
:10030100AE29AD28AC2712021AEF2430FF120ACF12
:10031100E52504FFAD26120AE5E47B107A27F9F8FA
:10032100AF2AAE29AD28AC2712021AAC00AD01AE3E
:1003310002AF03E47BE87A03F9F812021AEF2430E2
:10034100FF120ACFE5252402FFAD26120AE5E47B60
:10035100E87A03F9F8AF2AAE29AD28AC2712021AC0
:10036100AC00AD01AE02AF03E47B64FAF9F812020E
:100371001AEF2430FF120ACFE5252403FFAD261220
:100381000AE5E47B64FAF9F8AF2AAE29AD28AC2777
:1003910012021AAC00AD01AE02AF03E47B0AFAF916
:1003A100F812021AEF2430FF120ACFE5252404FFC8
:1003B100AD26120AE5E47B0AFAF9F8AF2AAE29ADB7
:0D03C10028AC2712021AEB2430FF020ACFED
:1009B60053B1BF53B2BF53B17F53B27F7598504303
:1009C6008920438780438E1053C4DFAB07AA06A94C
:1009D60005A8047F407E427D0F7C0012021AEF04B8
:0909E600F404F58DD28ED29922A1
:100644008F1B8E1A8D198C1853B1BF53B2BF53B17F
:100654007F53B27F75985043878053C4F843C420B6
:10066400AB1BAA1AA919A8187F407E427D0F7C00F3
:1006740012021AC374FF9FFF74FF9EFEE49DFDE403
:100684009CFC78081202CB8FC6AB1BAA1AA919A826
:10069400187F407E427D0F7C0012021AC374FF9FB4
:0906A400FF8FC543C408D299225E
:070B3A003098FDAF99C2984D
:010B41002291
:080B4200C2998F993099FD2240
:1006AD008F1F8E1E8D1D8C1C53B1FB53B2FB53B38C
:1006BD00BF53B4BF75F85075C40853C4DFAB1FAA40
:1006CD001EA91DA81C7F407E427D0F7C0012021AC0
:1006DD00C374FF9FFF74FF9EFEE49DFDE49CFC78B8
:1006ED00081202CB8FC6AB1FAA1EA91DA81C7F40E6
:1006FD007E427D0F7C0012021AC374FF9FFF8FC5CF
:04070D0043C40822B7
:070B4A0030F8FDAF9AC2F87C
:010B51002281
:080B5200C2F98F9A30F9FD226F
:10085C008F348E338D328C31538EF7438901D28C89
:10086C00E4FFFEFDFCAB34AA33A932A831C312025B
:10087C00BA6025758A7E758CFF308DFDC28DE5348E
:10088C0024FFF534E53334FFF533E53234FFF5322C
:0B089C00E53134FFF53180C8C28C222A
:1008A7008F308E2F8D2E8C2D538EF7438901D28C4E
:1008B700E4FFFEFDFCAB30AA2FA92EA82DC3120220
:1008C700BA6025758ACA758CFA308DFDC28DE53000
:1008D70024FFF530E52F34FFF52FE52E34FFF52EF5
:0B08E700E52D34FFF52D80C8C28C22E7
:1008F2008F388E378D368C35538EEF438910D28EDA
:10090200E4FFFEFDFCAB38AA37A936A835C31202B4
:10091200BA6025758BEA758DCB308FFDC28FE538B5
:1009220024FFF538E53734FFF537E53634FFF53681
:0B093200E53534FFF53580C8C28E2289
:100774008F3C8E3B8D3A8C3953C9BF53C9DF43C973
:1007840010D2CAE4FFFEFDFCAB3CAA3BA93AA8394F
:10079400C31202BA602575CC3075CDF830CFFDC2D6
:1007A400CFE53C24FFF53CE53B34FFF53BE53A342B
:0E07B400FFF53AE53934FFF53980C8C2CA2294
:1007C2008F408E3F8D3E8C3D75C40743C408E4FFC5
:1007D200FEFDFCAB40AA3FA93EA83DC31202BA608F
:1007E2002875C52C75C6CFE5C430E4FB53C4EFE5CC
:1007F2004024FFF540E53F34FFF53FE53E34FFF589
:0D0802003EE53D34FFF53D80C553C4F722AF
:10080F008F448E438D428C4175C40743C408E4FF67
:10081F00FEFDFCAB44AA43A942A841C31202BA6031
:10082F002875C5D875C6FFE5C430E4FB53C4EFE5A2
:10083F004424FFF544E54334FFF543E54234FFF527
:0D084F0042E54134FFF54180C553C4F72256
:0809EF0054F0FF53450F42458F
:1009F7007E08AD45C282EED394004021ED5480C4F9
:100A07001313135401FF530701EF7004C2808002D0
:0F0A1700D280D281ED25E0FD1EC28180D9D2822E
:010A260022AD
:100711007F0A7E007D007C001208A753B1FE43B220
:100721000153B1FD43B20253B1FB43B2047F0A7ED0
:10073100007D007C001208A77545081209F77F0AA1
:100741007E007D007C001208A7E4FD7F33120AB908
:10075100E4FD7F32120AB9E4FD7F28120AB9E4FDF3
:100761007F0C120AB9E4FD7F01120AB9E4FD7F068C
:03077100020AB9C0
:100A27004345081209F77F027E007D007C0012080B
:100A3700A75345F71209F77F027E007D007C00026D
:020A470008A7FE
:100AB900AC07ED14700543450480035345FB120947
:060AC900F7AF04020AFB76
:020AFB008F2C3E
:100AFD00E52C1209EF120A27E52C540FC41209EF49
:030B0D00020A27B2
:10002E008B258A268927AB25AA26A9271201C5600A
:10003E00130527E5277002052614F91201C5FF12D4
:05004E000ACF80E22250
:100ACF00C3EF648094A0400DD3EF648094FF500572
:060ADF007D01120AB9229C
:0E0B2000E4FD7F01120AB9E4FD7F02020AB96A
:100AE5008F2BED7006E52B44808004E52B44C0FF79
:060AF500E4FD120AB92223
:0300000002047A7D
:10047A0075C7AA75C75575FD5A75C7AA75C7557543
:10048A00FDA5787FE4F6D8FD9000007FFF7E03E4A7
:0C049A00F0A3DFFCDEFA7581450204E1EE
:100066000201BAEC5D046005E8590470030201B0B0
:1000760012017B580460F6EC4860F2EC7004FDFE59
:10008600FF22C860DB2481C85009C398600250066D
:100096000201B79850CAF582E9294B4A7005AB822E
:1000A6000201A675F0007C1A7880C3EF9BEE9AEDEC
:1000B60099400DC3EF9BFFEE9AFEED99FDE842F0E5
:1000C600DC23ACF0D0E0FFD0E0FED0E0FDAB822038
:1000D600E7101BEB60BAEC2CFCEF33FFEE33FEEDC2
:1000E60033FD020192E803F830E705C0F075F00031
:1000F600EF2FFFEE33FEED33FD40B830E7C280AAA6
:1001060075F020800E75F010800575F0087D007E74
:10011600007F003392D530D5031202ACEC33401089
:10012600EF33FFEE33FEED33FDEC33FCD5F0ED227D
:0E013600E5F0247EA2D513CC92E7CDCEFF22B9
:10014400EDD2E7CD33EC3392D524814006E4FFFEB3
:10015400FDFC22FCE4CFCECDCC24E0501174FF8012
:10016400EDC3CC13CCCD13CDCE13CECF13CF0470AF
:07017400F030D5DE0202AC01
:10017B00E9D2E7C933E833F892D5EDD2E7CD33ECCA
:07018B0033FC5002B2D52243
:10019200EC30E7100FBF000C0EBE00080DBD0004CE
:1001A2000BEB6014A2D5EB13FCED92E7FD2274FF7A
:1001B200FCFDFEFF22E480F8A2D574FF13FC7D80D3
:0301C200E480EFE7
:1004A6000205CCE493A3F8E493A34003F68001F29B
:1004B60008DFF48029E493A3F85407240CC8C33357
:1004C600C4540F4420C8834004F456800146F6DF26
:1004D600E4800B0102040810204080900AA0E47E0C
:1004E600019360BCA3FF543F30E509541FFEE4931B
:1004F600A360010ECF54C025E060A840B8E493A3E2
:10050600FAE493A3F8E493A3C8C582C8CAC583CA0C
:10051600F0A3C8C582C8CAC583CADFE9DEE780BEC4
:010AB800003D
:1001C500BB010689828A83E0225002E722BBFE0238
:0901D500E32289828A83E493226B
:1001DE0075F008758200EF2FFFEE33FECD33CDCCD8
:1001EE0033CCC58233C5829BED9AEC99E58298405B
:1001FE000CF582EE9BFEED9AFDEC99FC0FD5F0D638
:10020E00E4CEFBE4CDFAE4CCF9A88222B800C1B961
:10021E000059BA002DEC8BF084CFCECDFCE5F0CB9F
:10022E00F97818EF2FFFEE33FEED33FDEC33FCEBD8
:10023E0033FB10D703994004EB99FB0FD8E5E4F993
:10024E00FA227818EF2FFFEE33FEED33FDEC33FC80
:10025E00C933C910D7059BE99A4007EC9BFCE99A74
:10026E00F90FD8E0E4C9FAE4CCFB2275F010EF2FB9
:10027E00FFEE33FEED33FDCC33CCC833C810D707B9
:10028E009BEC9AE899400AED9BFDEC9AFCE899F8F4
:0E029E000FD5F0DAE4CDFBE4CCFAE4C8F92287
:0E02AC00C3E49FFFE49EFEE49DFDE49CFC2263
:1002BA00EB9FF5F0EA9E42F0E99D42F0E89C45F09A
:0102CA002211
:1002CB00E8600FECC313FCED13FDEE13FEEF13FF11
:0302DB00D8F12235
:1002DE00E8600FEFC333FFEE33FEED33FDEC33FC7E
:0302EE00D8F12222
:00000001FF
