:100766005541525420496E74657272757074005208
:0B077600616E67652F496E63683A00F2
:0D07EF0001120001110005130000000000C0
:030023000206567C
:10065600C0E0C0D075D000C00030981774132511C3
:10066600F8A6990511E511C394044005C2AC7512AC
:0C06760001C298B295D000D0D0D0E03284
:10049F00E4F5081205B27F5312081D7F287E001263
:1004AF00074AD2ACE5126027750801E508240CFF56
:1004BF007D011207C774132508F8E6FF1207B1056F
:1004CF0008E508C3940440E3E4F511F512D2AC7FBC
:0804DF00287E0012074A80BECE
:1005B20053B3DF43B42012052F1207FDE4FD7F0180
:1005C2001207C77BFF7A0779661206A97D01E4FF4D
:1005D2001207C77BFF7A0779751206A97F807E25ED
:0A05E2007D007C001201BDD2AF22A3
:1005EC0053B1BF53B2BF53B17F53B27F75985043D1
:1005FC008920438780438E1053C4DFAB07AA06A91A
:10060C0005A8047F407E427D0F7C0012007BEF0426
:09061C00F404F58DD28ED299226E
:1001BD008F0C8E0B8D0A8C0953B1BF53B2BF53B147
:1001CD007F53B27F75985043878053C4F843C42042
:1001DD00AB0CAA0BA90AA8097F407E427D0F7C00BB
:1001ED0012007BC374FF9FFF74FF9EFEE49DFDE430
:1001FD009CFC780812011E8FC6AB0CAA0BA90AA88D
:10020D00097F407E427D0F7C0012007BC374FF9FEF
:09021D00FF8FC543C408D29922E9
:070815003098FDAF99C29875
:01081C0022B9
:08081D00C2998F993099FD2268
:100226008F1B8E1A8D198C1853B1FB53B2FB53B327
:10023600BF53B4BF75F85075C40853C4DFAB1BAACF
:100246001AA919A8187F407E427D0F7C0012007BF8
:10025600C374FF9FFF74FF9EFEE49DFDE49CFC7843
:100266000812011E8FC6AB1BAA1AA919A8187F402F
:100276007E427D0F7C0012007BC374FF9FFF8FC5FB
:0402860043C4082243
:0708250030F8FDAF9AC2F8A4
:01082C0022A9
:08082D00C2F98F9A30F9FD2297
:1003BE008F1F8E1E8D1D8C1C538EF7438901D28C80
:1003CE00E4FFFEFDFCAB1FAA1EA91DA81CC3120153
:1003DE000D6025758A7E758CFF308DFDC28DE51FF3
:1003EE0024FFF51FE51E34FFF51EE51D34FFF51D38
:0B03FE00E51C34FFF51C80C8C28C22F7
:100409008F248E238D228C21538EF7438901D28C20
:10041900E4FFFEFDFCAB24AA23A922A821C31201F3
:100429000D6025758ACA758CFA308DFDC28DE5245B
:1004390024FFF524E52334FFF523E52234FFF522D3
:0B044900E52134FFF52180C8C28C22A1
:100454008F288E278D268C25538EEF438910D28EBC
:10046400E4FFFEFDFCAB28AA27A926A825C3120198
:100474000D6025758BEA758DCB308FFDC28FE52815
:1004840024FFF528E52734FFF527E52634FFF52674
:0B049400E52534FFF52580C8C28E224C
:10028A008F2C8E2B8D2A8C2953C9BF53C9DF43C9A2
:10029A0010D2CAE4FFFEFDFCAB2CAA2BA92AA8297E
:1002AA00C312010D602575CC3075CDF830CFFDC273
:1002BA00CFE52C24FFF52CE52B34FFF52BE52A346A
:0E02CA00FFF52AE52934FFF52980C8C2CA22B3
:1002D8008F308E2F8D2E8C2D75C40743C408E4FFF4
:1002E800FEFDFCAB30AA2FA92EA82DC312010D606C
:1002F8002875C52C75C6CFE5C430E4FB53C4EFE5BB
:100308003024FFF530E52F34FFF52FE52E34FFF5C7
:0D0318002EE52D34FFF52D80C553C4F722CE
:100325008F348E338D328C3175C40743C408E4FF96
:10033500FEFDFCAB34AA33A932A831C312010D600E
:100345002875C5D875C6FFE5C430E4FB53C4EFE591
:100355003424FFF534E53334FFF533E53234FFF566
:0D03650032E53134FFF53180C553C4F72275
:10052F0012080B7F0A7E0012074A753901753804CD
:10053F00AF381207127F0A7E0012074AE4FD7F339D
:10054F00120625E4FD7F32120625E4FD7F281206F0
:10055F0025E4FD7F0C120625E4FD7F01120625E43C
:06056F00FD7F06020625D7
:10000300433804AF381207127F017E0012074A53A8
:0E00130038F9AF381207127F017E0002074A4B
:100625008F0CED1460080470085338F480034338C8
:1006350001E539600814700843380880035338F71A
:10064500AF38120712AF0C1206827F017E00020737
:010655004A5A
:020682008F0DDA
:10068400E50D54F053380F4238AF381207121200F8
:1006940003E50D540FC454F053380F4238AF3812E9
:0506A400071202000333
:1006A9008B098A0A890BAB09050BE50BAA0A7002AB
:1006B900050A14F9120026FF1207B1AB09AA0AA903
:0706C9000B12002670E02275
:1007B100C3EF648094A0400DD3EF648094FF500593
:0607C1007D011206252255
:0E07FD00E4FD7F01120625E4FD7F02020625C1
:1007C7008F09ED7006E50944808004E50944C0FF00
:0607D700E4FD12062522DC
:0A080B001207997F0A7E0002074AD7
:10078100E4F53C1206F57F4F1204E7E4FF12037211
:070791008F3C12072EAF3C64
:01079800223E
:100712008F0E1206F57F4E1204E77FFF1206D0AF4E
:0C0722000E1204E77FFF1206D002072E23
:1007990053B1F743B20853B1EF43B2107F0A7E0059
:0807A90012074AD283D2842218
:1006F50053B1F743B208D283D2847F287E00120714
:0D070500DDC2837F287E001207DDC2842242
:10072E0053B1F743B208C283C2847F287E001207FA
:0C073E00DDD283D2847F287E000207DD1C
:020372008F35C5
:10037400753608E4F53743B10853B2F7C2847F14E5
:100384007E001207DDD2847F147E001207DDE5377C
:1003940025E0F53730830205377F0A7E001207DD3A
:1003A4001536E536D3940050D3E5350470047FFF49
:0903B4008002E4FF1206D0AF370D
:0103BD00221D
:0204E7008F0F75
:1004E90075100853B1F743B208C284E50F5480C4AC
:1004F90013131354016004D2838002C283E50F25CC
:10050900E0F50F7F147E001207DDD2847F147E0090
:100519001207DDC2847F147E001207DD1510E51075
:05052900D3940050C650
:01052E0022AA
:1006D000C28453B1F743B208EF047004C2838002AE
:1006E000D2837F147E001207DDD2847F147E001235
:0506F00007DDC28422B9
:10057500E4F53AF53B43B10853B2F7D2837F0AFE5F
:100585001207DDD2847F0A7E001207DD308319054C
:100595003BE53B7002053AD394E8E53A64809483E1
:0C05A50040EA12072E7F0122C2847F0072
:0105B1002227
:1007DD00D3EF9400EE9400400800EF1F70F21E80DE
:0207ED00EF22F9
:10074A00AD07AC06D3ED9400EC9400400EED1D709D
:0C075A00011C7FE87E031207DD80E9220D
:03000000020131C9
:0C013100787FE4F6D8FD75813C0201786F
:10002600BB010689828A83E0225002E722BBFE02D8
:09003600E32289828A83E493220B
:10003F0075F008758200EF2FFFEE33FECD33CDCC78
:10004F0033CCC58233C5829BED9AEC99E5829840FB
:10005F000CF582EE9BFEED9AFDEC99FC0FD5F0D6D8
:10006F00E4CEFBE4CDFAE4CCF9A88222B800C1B902
:10007F000059BA002DEC8BF084CFCECDFCE5F0CB40
:10008F00F97818EF2FFFEE33FEED33FDEC33FCEB79
:10009F0033FB10D703994004EB99FB0FD8E5E4F934
:1000AF00FA227818EF2FFFEE33FEED33FDEC33FC21
:1000BF00C933C910D7059BE99A4007EC9BFCE99A15
:1000CF00F90FD8E0E4C9FAE4CCFB2275F010EF2F5A
:1000DF00FFEE33FEED33FDCC33CCC833C810D7075A
:1000EF009BEC9AE899400AED9BFDEC9AFCE899F895
:0E00FF000FD5F0DAE4CDFBE4CCFAE4C8F92228
:10010D00EB9FF5F0EA9E42F0E99D42F0E89C45F048
:01011D0022BF
:10011E00E8600FECC313FCED13FDEE13FEEF13FFBF
:03012E00D8F122E3
:10013D0002049FE493A3F8E493A34003F68001F235
:10014D0008DFF48029E493A3F85407240CC8C333C3
:10015D00C4540F4420C8834004F456800146F6DF92
:10016D00E4800B01020408102040809007EFE47E2C
:10017D00019360BCA3FF543F30E509541FFEE49387
:10018D00A360010ECF54C025E060A840B8E493A34E
:10019D00FAE493A3F8E493A3C8C582C8CAC583CA79
:1001AD00F0A3C8C582C8CAC583CADFE9DEE780BE31
:0107FC0000FC
:00000001FF
