:0D06AB000B21003F065B4F666D7D277F6FC2
:10058100E4F508F509750A03750BE77F8D1205F887
:100591000509E509AC087002050814FDE4FF120124
:1005A10080E50B150BAC0A7002150AFD7F041201E0
:0E05B100807F047E007D007C0012040680D254
:060180008F0C8C0D8D0EAA
:10018600E4F50FD3E50E9463E50D64809480403F5B
:10019600D3E50E94E7E50D648094835032AE0DAF3F
:1001A6000E7C007D641200038F0FE50C2402FF74A1
:1001B60022250FF8E6FD120660AE0DAF0E7C007D1F
:1001C6000A1200037C007D0A1200038D0F8031D3D2
:1001D600E50E9409E50D648094804030D3E50E94D5
:1001E60063E50D648094805023E50C2402FFE4FD52
:1001F600120660AE0DAF0E7C007D0A1200038F0F53
:10020600E50C04FF7422250FF8E6800FE50C2402A6
:10021600FFE4FD120660E50C04FFE4FD120660AE85
:100226000DAF0E7C007D0A1200038D0F7422250F80
:08023600F8E6FDAF0C120660B2
:01023E00229D
:1005BF0053B1BF53B2BF53B17F53B27F75985043FE
:1005CF008920438780438E1053C4DFAB07AA06A947
:1005DF0005A8047F407E427D0F7C00120075EF045A
:0905EF00F404F58DD28ED299229C
:1002EB008F1A8E198D188C1753B1BF53B2BF53B1E0
:1002FB007F53B27F75985043878053C4F843C42013
:10030B00AB1AAA19A918A8177F407E427D0F7C0053
:10031B00120075C374FF9FFF74FF9EFEE49DFDE406
:10032B009CFC78081201188FC6AB1AAA19A918A839
:10033B00177F407E427D0F7C00120075C374FF9FB8
:09034B00FF8FC543C408D29922BA
:0706C6003098FDAF99C298C6
:0106CD00220A
:0806CE00C2998F993099FD22B9
:100354008F1E8E1D8D1C8C1B53B1FB53B2FB53B3EC
:10036400BF53B4BF75F85075C40853C4DFAB1EAA9D
:100374001DA91CA81B7F407E427D0F7C00120075C6
:10038400C374FF9FFF74FF9EFEE49DFDE49CFC7814
:10039400081201188FC6AB1EAA1DA91CA81B7F40FA
:1003A4007E427D0F7C00120075C374FF9FFF8FC5D2
:0403B40043C4082214
:0706D60030F8FDAF9AC2F8F5
:0106DD0022FA
:0806DE00C2F98F9A30F9FD22E8
:1004A0008F2F8E2E8D2D8C2C538EF7438901D28C5D
:1004B000E4FFFEFDFCAB2FAA2EA92DA82CC3120130
:1004C000076025758A7E758CFF308DFDC28DE52F06
:1004D00024FFF52FE52E34FFF52EE52D34FFF52D05
:0B04E000E52C34FFF52C80C8C28C22F4
:1004EB008F108E0F8D0E8C0D538EF7438901D28C8E
:1004FB00E4FFFEFDFCAB10AA0FA90EA80DC3120161
:10050B00076025758ACA758CFA308DFDC28DE51092
:10051B0024FFF510E50F34FFF50FE50E34FFF50E54
:0B052B00E50D34FFF50D80C8C28C22E6
:100536008F338E328D318C30538EEF438910D28EAD
:10054600E4FFFEFDFCAB33AA32A931A830C3120189
:10055600076025758BEA758DCB308FFDC28FE5332D
:1005660024FFF533E53234FFF532E53134FFF5315A
:0B057600E53034FFF53080C8C28E2253
:1003B8008F378E368D358C3453C9BF53C9DF43C947
:1003C80010D2CAE4FFFEFDFCAB37AA36A935A83423
:1003D800C3120107602575CC3075CDF830CFFDC24A
:1003E800CFE53724FFF537E53634FFF536E5353404
:0E03F800FFF535E53434FFF53480C8C2CA2263
:100406008F0F8E0E8D0D8C0C75C40743C408E4FF48
:10041600FEFDFCAB0FAA0EA90DA80CC312010760C6
:100426002875C52C75C6CFE5C430E4FB53C4EFE58B
:100436000F24FFF50FE50E34FFF50EE50D34FFF53D
:0D0446000DE50C34FFF50C80C553C4F72202
:100453008F168E158D148C1375C40743C408E4FFDF
:10046300FEFDFCAB16AA15A914A813C3120107605D
:100473002875C5D875C6FFE5C430E4FB53C4EFE562
:100483001624FFF516E51534FFF515E51434FFF5CD
:0D04930014E51334FFF51380C553C4F722A0
:1005F8008F0C53B1F743B20853B1EF43B2107F0ADF
:100608007E007D007C001204EBD283D2847F4012EE
:0A06180006B9AF0C1206B9020695F0
:10062200D283D2847F017E007D007C00120453C2FB
:0F063200837F017E007D007C00120453C284226E
:10064100C283C2847F017E007D007C00120453D2EC
:0F065100847F017E007D007C00120453D283223F
:10067E007E08C284EF30E004D2838002C283D2842B
:06068E00EFC313FFDEECD8
:010694002243
:0D06B9008F12120622AF1212067E020641B9
:100660008F108D117F441206B9120622E510540F27
:0E06700044C0FF12067EAF1112067E02064144
:10069500E4F50DF50DE4FDAF0D120660050DE50D54
:0506A500C3941040F0B9
:0106AA00222D
:0300000002023FBA
:10023F0075C7AA75C75575FD5A75C7AA75C7557580
:10024F00FDA5787FE4F6D8FD9000007FFF7E03E4E4
:0C025F00F0A3DFFCDEFA7581370202A676
:10026B00020581E493A3F8E493A34003F68001F223
:10027B0008DFF48029E493A3F85407240CC8C33394
:10028B00C4540F4420C8834004F456800146F6DF63
:10029B00E4800B01020408102040809006ABE47E42
:1002AB00019360BCA3FF543F30E509541FFEE49358
:1002BB00A360010ECF54C025E060A840B8E493A31F
:1002CB00FAE493A3F8E493A3C8C582C8CAC583CA4A
:1002DB00F0A3C8C582C8CAC583CADFE9DEE780BE02
:0106B8000041
:10000300C2D5EC30E709B2D5E4C39DFDE49CFCEE18
:1000130030E715B2D5E4C39FFFE49EFE12012BC364
:10002300E49DFDE49CFC800312012B30D507C3E45F
:060033009FFFE49EFE2287
:1000390075F008758200EF2FFFEE33FECD33CDCC7E
:1000490033CCC58233C5829BED9AEC99E582984001
:100059000CF582EE9BFEED9AFDEC99FC0FD5F0D6DE
:10006900E4CEFBE4CDFAE4CCF9A88222B800C1B908
:100079000059BA002DEC8BF084CFCECDFCE5F0CB46
:10008900F97818EF2FFFEE33FEED33FDEC33FCEB7F
:1000990033FB10D703994004EB99FB0FD8E5E4F93A
:1000A900FA227818EF2FFFEE33FEED33FDEC33FC27
:1000B900C933C910D7059BE99A4007EC9BFCE99A1B
:1000C900F90FD8E0E4C9FAE4CCFB2275F010EF2F60
:1000D900FFEE33FEED33FDCC33CCC833C810D70760
:1000E9009BEC9AE899400AED9BFDEC9AFCE899F89B
:0E00F9000FD5F0DAE4CDFBE4CCFAE4C8F9222E
:10010700EB9FF5F0EA9E42F0E99D42F0E89C45F04E
:0101170022C5
:10011800E8600FECC313FCED13FDEE13FEEF13FFC5
:03012800D8F122E9
:10012B00BC000BBE0029EF8DF084FFADF022E4CCB8
:10013B00F875F008EF2FFFEE33FEEC33FCEE9DEC81
:10014B00984005FCEE9DFE0FD5F0E9E4CEFD22EDC7
:10015B00F8F5F0EE8420D21CFEADF075F008EF2F11
:10016B00FFED33FD4007985006D5F0F222C398FD02
:05017B000FD5F0EA229F
:00000001FF
