:0B09300048656164696E6720204E007E
:0A088800082100060909060000001F
:1002F5001206F51201BAE519603F7D017F06120865
:10030500E6AF131208D07D017F071208E6AF14127D
:1003150008D07D017F081208E6AF151208D07D01CF
:100325007F091208E67F2E1208D07D017F0A120888
:10033500E6AF171208D0E4F519B2957FC87E001212
:04034500083480AF49
:1006F50053B3DF43B42012063912092212075EE410
:10070500FD7F031208E67BFF7A0979301207ADE415
:10071500FD7F0B1208E67D01E4FF12072D7F807E29
:08072500257D007C0002029119
:10075E00E4F529FD7F4012072DE4F52974212529A2
:10076E00F8E6FF7D0112072D0529E529C3940840FF
:08077E00EBE4FD7F8002072D72
:0D0892000119000811000000000000000026
:1001BA00E4F529F52DF52CF52BF52A7F3112095D89
:1001CA00E4F52912095574112529F8A607E529C36A
:1001DA009407501F74112529F8E6FFE4FCFDFEE59B
:1001EA002D2FF52DEE352CF52CED352BF52BEC3589
:1001FA002AF52A0529E529C3940840C7E52DF52DD6
:10020A00E4F52CF52BF52AAF18FCFDFEAB2DAA2C34
:0D021A00A92BA82AC31200EA700375190170
:0102270022B4
:1005A800E4F54E7FC012095DE4F54ED2957F647E76
:1005B80000120834C2957F847E03120834054EE584
:1005C8004EC3943C40E5E4F54ED2957F907E0112EF
:1005D8000834C2957F587E02120834054EE54EC392
:0905E800943C40E57FC102095D6D
:1008FC007FA012095D7FAA12095D7FA512095D7F99
:04090C00C502095DBA
:08055E008F0B8E0A8D098C0839
:10056600E4F50FF50EF50DF50CF510E48F10F50F0B
:10057600E50AF50EE4F50DF50CAF0FAE0EAD0DACBC
:100586000C78081200FB8F0F8E0E8D0D8C0C7F03DE
:1005960012095DAF0F12095D7F0412095DAF1002EB
:0205A600095DED
:10091000D3EF9400EE9400400800EF1F70F21E80A9
:02092000EF22C4
:10083400AD07AC06D3ED9400EC9400400EED1D70B2
:0C084400011C7FE87E0312091080E922ED
:1006390012093B7F0A7E00120834751F01751E04DA
:10064900AF1E1208507F0A7E00120834E4FD7F3382
:1006590012072DE4FD7F3212072DE4FD7F281207D2
:100669002DE4FD7F0C12072DE4FD7F0112072DE417
:06067900FD7F0602072DC3
:1007F900431E04AF1E1208507F017E0012083453B5
:0E0809001EF9AF1E1208507F017E0002083457
:10072D008F2CED146008047008531EF48003431ED3
:10073D0001E51F6008147008431E088003531EF75F
:10074D00AF1E120850AF2C1207867F017E000208E3
:01075D003467
:020786008F2DB5
:10078800E52D54F0531E0F421EAF1E1208501207DB
:10079800F9E52D540FC454F0531E0F421EAF1E121C
:0507A80008500207F9F2
:1007AD008B298A2A892BAB29052BE52BAA2A7002C6
:1007BD00052A14F9120003FF1208D0AB29AA2AA9A1
:0707CD002B12000370E02273
:1008D000C3EF648094A0400DD3EF648094FF500573
:0608E0007D0112072D222C
:0E092200E4FD7F0112072DE4FD7F0202072D88
:1008E6008F29ED7006E52944808004E52944C0FF80
:0608F600E4FD12072D22B3
:0A093B001208B87F0A7E000208349B
:1008A000E4F54F1208177F4F1205F1E4FF120431EF
:0708B0008F4F12086CAF4FDF
:0108B700221E
:100850008F2E1208177F4E1205F17FFF1207D4AFBB
:0C0860002E1205F17FFF1207D402086C75
:1008B80053B1F743B20853B1EF43B2107F0A7E0039
:0808C800120834D283D284220D
:1008170053B1F743B208D283D2847F287E001209EE
:0D08270010C2837F287E00120910C28422B7
:10086C0053B1F743B208C283C2847F287E001209B9
:0C087C0010D283D2847F287E0002091075
:020431008F49F1
:10043300754A08E4F54B43B10853B2F7C2847F14FD
:100443007E00120910D2847F147E00120910E54B3E
:1004530025E0F54B308302054B7F0A7E001209101D
:10046300154AE54AD3940050D3E5490470047FFF4D
:090473008002E4FF1207D4AF4B34
:01047C00225D
:0205F1008F2F4A
:1005F30075300853B1F743B208C284E52F5480C461
:1006030013131354016004D2838002C283E52F25A0
:10061300E0F52F7F147E00120910D2847F147E0030
:10062300120910C2847F147E001209101530E530C0
:05063300D3940050C645
:01063800229F
:1007D400C28453B1F743B208EF047004C2838002A9
:1007E400D2837F147E00120910D2847F147E0012FB
:0507F4000910C284227F
:10067F00E4F54CF54D43B10853B2F7D2837F0AFE30
:10068F00120910D2847F0A7E0012091030831905D7
:10069F004DE54D7002054CD394E8E54C648094838E
:0C06AF0040EA12086C7F0122C2847F0028
:0106BB00221C
:1006BC0053B1BF53B2BF53B17F53B27F7598504300
:1006CC008920438780438E1053C4DFAB07AA06A949
:1006DC0005A8047F407E427D0F7C00120058EF0479
:0906EC00F404F58DD28ED299229E
:100228008F1D8E1C8D1B8C1A53B1BF53B2BF53B197
:100238007F53B27F75985043878053C4F843C420D6
:10024800AB1DAA1CA91BA81A7F407E427D0F7C000B
:10025800120058C374FF9FFF74FF9EFEE49DFDE4E7
:100268009CFC78081200FB8FC6AB1DAA1CA91BA812
:100278001A7F407E427D0F7C00120058C374FF9F96
:09028800FF8FC543C408D299227E
:070945003098FDAF99C29844
:01094C002288
:08094D00C2998F993099FD2237
:100291008F2C8E2B8D2A8C2953B1FB53B2FB53B378
:1002A100BF53B4BF75F85075C40853C4DFAB2CAA53
:1002B1002BA92AA8297F407E427D0F7C001200587D
:1002C100C374FF9FFF74FF9EFEE49DFDE49CFC78D8
:1002D100081200FB8FC6AB2CAA2BA92AA8297F40A4
:1002E1007E427D0F7C00120058C374FF9FFF8FC5B3
:0402F10043C40822D8
:0709550030F8FDAF9AC2F873
:01095C002278
:08095D00C2F98F9A30F9FD2266
:10047D008F348E338D328C31538EF7438901D28C6C
:10048D00E4FFFEFDFCAB34AA33A932A831C3120040
:10049D00EA6025758A7E758CFF308DFDC28DE53441
:1004AD0024FFF534E53334FFF533E53234FFF5320F
:0B04BD00E53134FFF53180C8C28C220D
:1004C8008F388E378D368C35538EF7438901D28C11
:1004D800E4FFFEFDFCAB38AA37A936A835C31200E5
:1004E800EA6025758ACA758CFA308DFDC28DE538AB
:1004F80024FFF538E53734FFF537E53634FFF536B0
:0B050800E53534FFF53580C8C28C22B9
:100513008F3C8E3B8D3A8C39538EEF438910D28EAC
:10052300E4FFFEFDFCAB3CAA3BA93AA839C3120089
:10053300EA6025758BEA758DCB308FFDC28FE53C64
:1005430024FFF53CE53B34FFF53BE53A34FFF53A50
:0B055300E53934FFF53980C8C28E2264
:100349008F408E3F8D3E8C3D53C9BF53C9DF43C992
:1003590010D2CAE4FFFEFDFCAB40AA3FA93EA83D6E
:10036900C31200EA602575CC3075CDF830CFFDC2D7
:10037900CFE54024FFF540E53F34FFF53FE53E3446
:0E038900FFF53EE53D34FFF53D80C8C2CA22B7
:100397008F448E438D428C4175C40743C408E4FFE4
:1003A700FEFDFCAB44AA43A942A841C31200EA6080
:1003B7002875C52C75C6CFE5C430E4FB53C4EFE5FB
:1003C7004424FFF544E54334FFF543E54234FFF5A4
:0D03D70042E54134FFF54180C553C4F722D3
:1003E4008F488E478D468C4575C40743C408E4FF87
:1003F400FEFDFCAB48AA47A946A845C31200EA6023
:100404002875C5D875C6FFE5C430E4FB53C4EFE5D1
:100414004824FFF548E54734FFF547E54634FFF542
:0D04240046E54534FFF54580C553C4F72279
:0300000002010EEC
:10010E0075C7AA75C75575FD5A75C7AA75C75575B2
:10011E00FDA5787FE4F6D8FD9000007FFF7E03E416
:0C012E00F0A3DFFCDEFA75814F020175C2
:10013A000202F5E493A3F8E493A34003F68001F2E4
:10014A0008DFF48029E493A3F85407240CC8C333C6
:10015A00C4540F4420C8834004F456800146F6DF95
:10016A00E4800B0102040810204080900888E47E95
:10017A00019360BCA3FF543F30E509541FFEE4938A
:10018A00A360010ECF54C025E060A840B8E493A351
:10019A00FAE493A3F8E493A3C8C582C8CAC583CA7C
:1001AA00F0A3C8C582C8CAC583CADFE9DEE780BE34
:01089F000058
:10000300BB010689828A83E0225002E722BBFE02FB
:09001300E32289828A83E493222E
:10001C0075F008758200EF2FFFEE33FECD33CDCC9B
:10002C0033CCC58233C5829BED9AEC99E58298401E
:10003C000CF582EE9BFEED9AFDEC99FC0FD5F0D6FB
:10004C00E4CEFBE4CDFAE4CCF9A88222B800C1B925
:10005C000059BA002DEC8BF084CFCECDFCE5F0CB63
:10006C00F97818EF2FFFEE33FEED33FDEC33FCEB9C
:10007C0033FB10D703994004EB99FB0FD8E5E4F957
:10008C00FA227818EF2FFFEE33FEED33FDEC33FC44
:10009C00C933C910D7059BE99A4007EC9BFCE99A38
:1000AC00F90FD8E0E4C9FAE4CCFB2275F010EF2F7D
:1000BC00FFEE33FEED33FDCC33CCC833C810D7077D
:1000CC009BEC9AE899400AED9BFDEC9AFCE899F8B8
:0E00DC000FD5F0DAE4CDFBE4CCFAE4C8F9224B
:1000EA00EB9FF5F0EA9E42F0E99D42F0E89C45F06C
:0100FA0022E3
:1000FB00E8600FECC313FCED13FDEE13FEEF13FFE3
:03010B00D8F12206
:00000001FF
