:100869000A11ED218FAB63EAEEA1EFEB0908000055
:0D08790000000000000000011B00011C0039
:030083000205ADC6
:1005AD00C0E0C0F0C083C082C0D075D000C000C014
:1005BD0001C002C003C004C005C006C007740825F1
:1005CD001CF8E6FF120887AF1C120003051CE51C82
:1005DD00D394094003751C0053C4EFD007D006D047
:1005ED0005D004D003D002D001D000D0D0D082D01D
:0605FD0083D0F0D0E032D3
:10044B00E4F521F52275232775240F1208D3E51B3C
:10045B0024FE601314601914601F24037025E4F547
:10046B0028FBFD7F018019E4F528FB7D01FF80103F
:10047B00E4F5287B01FDFF8007752801E4FBFDFFF8
:10048B001207CCE4F51B0522E52270020521E524B9
:10049B00152470021523D3E522940FE521942740F0
:1004AB000BE4F521F52275232775240FE4FDAF220C
:1004BB00AE211200867D04AF24AE231200867F2866
:1004CB007E007D007C00120781E4F528FBFDFF1206
:0504DB0007CC020459EA
:0608D30012083E02007253
:10083E0053B1FE43B20153B1FD43B20253B1FB4378
:10084E00B20453B1F743B20853B3DF43B42053B3EA
:0B085E00BF43B44043B38053B47F227B
:100072007FC07EF912089E439C02D2AF43C408227D
:0C089E00EFF5C5EF4E7E00EEFF8FC62286
:0808AA00AFC6EFFEADC5EDFF86
:0108B2002223
:100887007E08EF30E704D2958002C295D296C296D1
:06089700EF25E0FFDEEC9E
:01089D002238
:10000300E4F580EFB40A005065900013F8282873D4
:1000130002003102003902003D02004102004502A4
:10002300004902004D02005102005C0200670020FB
:10003300973C751B01227580012275800222758011
:10004300032275800422758005227580062275803F
:100053000700209719751B02227580080020970E50
:0F006300751B032275800900209703751B04226B
:1007CC00EF6008147008431080800353107FED60B5
:1007DC000814700843104080035310BFEB600814DA
:1007EC00700843100880035310F7E5286007147055
:0907FC0007431002225310FD22F4
:060086008D25AB07AA0660
:10008C00C3EA64809480402CD3EB9409EA64809496
:10009C008050217C007D0AAF03120222AF0574113F
:1000AC002FF8E6FF74082525F8A60774092525F80E
:1000BC00E4F68051D3EB9409EA64809480404FD3EA
:1000CC00EB9463EA6480948050447C007D0AAF0317
:1000DC00AE02120222AF0574112FF8E6FF74082548
:1000EC0025F8A6077C007D0AAF03AE021202227C23
:1000FC00007D0A120222AF0574112FF8E6FF740975
:10010C002525F8A607740A2525F8E4F68072D3EBAA
:10011C009463EA64809480406FD3EB94E7EA648044
:10012C00948350647C007D0AAF03AE02120222AFAE
:10013C000574112FF8E6FF74082525F8A6077C0036
:10014C007D0AAF03AE021202227C007D0A1202224B
:10015C00AF0574112FF8E6FF74092525F8A6077C66
:10016C00007D64AF03AE021202227C007D0A1202F3
:10017C0022AF0574112FF8E6FF740A2525F8A6079F
:10018C00740B2525F8E4F622D3EB94E7EA6480940B
:10019C00835003020221D3EB940FEA648094A7509E
:1001AC00747C007D0AAF03AE02120222AF057411FB
:1001BC002FF8E6FF74082525F8A6077C007D0AAF0A
:1001CC0003AE021202227C007D0A120222AF0574D9
:1001DC00112FF8E6FF74092525F8A6077C007D642D
:1001EC00AF03AE021202227C007D0A120222AF057E
:1001FC0074112FF8E6FF740A2525F8A607AE02AF96
:10020C00037C037DE812022274112FF8E6FF740BB5
:05021C002525F8A607EE
:0102210022BA
:1008050053B1BF53B2BF53B17F53B27F75985043B5
:100815008920438780438E1053C4DFAB07AA06A9FE
:1008250005A8047F407E427D0F7C00120294EF04F0
:09083500F404F58DD28ED2992253
:1004E0008F2C8E2B8D2A8C2953B1BF53B2BF53B1A1
:1004F0007F53B27F75985043878053C4F843C4201C
:10050000AB2CAA2BA92AA8297F407E427D0F7C0014
:10051000120294C374FF9FFF74FF9EFEE49DFDE4EE
:100520009CFC78081203378FC6AB2CAA2BA92AA8EB
:10053000297F407E427D0F7C00120294C374FF9F8E
:09054000FF8FC543C408D29922C3
:0708B3003098FDAF99C298D7
:0108BA00221B
:0808BB00C2998F993099FD22CA
:100549008F308E2F8D2E8C2D53B1FB53B2FB53B3AD
:10055900BF53B4BF75F85075C40853C4DFAB30AA94
:100569002FA92EA82D7F407E427D0F7C0012029478
:10057900C374FF9FFF74FF9EFEE49DFDE49CFC781D
:10058900081203378FC6AB30AA2FA92EA82D7F409A
:100599007E427D0F7C00120294C374FF9FFF8FC5BA
:0405A90043C408221D
:0708C30030F8FDAF9AC2F806
:0108CA00220B
:0808CB00C2F98F9A30F9FD22F9
:1006EB008F348E338D328C31538EF7438901D28CFC
:1006FB00E4FFFEFDFCAB34AA33A932A831C31203CD
:10070B00266025758A7E758CFF308DFDC28DE53494
:10071B0024FFF534E53334FFF533E53234FFF5329E
:0B072B00E53134FFF53180C8C28C229C
:100736008F388E378D368C35538EF7438901D28CA0
:10074600E4FFFEFDFCAB38AA37A936A835C3120371
:10075600266025758ACA758CFA308DFDC28DE538FE
:1007660024FFF538E53734FFF537E53634FFF5363F
:0B077600E53534FFF53580C8C28C2249
:100781008F288E278D268C25538EEF438910D28E8C
:10079100E4FFFEFDFCAB28AA27A926A825C3120366
:1007A100266025758BEA758DCB308FFDC28FE528CC
:1007B10024FFF528E52734FFF527E52634FFF52644
:0B07C100E52534FFF52580C8C28E221C
:100603008F3C8E3B8D3A8C3953C9BF53C9DF43C9E5
:1006130010D2CAE4FFFEFDFCAB3CAA3BA93AA839C1
:10062300C3120326602575CC3075CDF830CFFDC2DB
:10063300CFE53C24FFF53CE53B34FFF53BE53A349D
:0E064300FFF53AE53934FFF53980C8C2CA2206
:100651008F408E3F8D3E8C3D75C40743C408E4FF37
:10066100FEFDFCAB40AA3FA93EA83DC31203266094
:100671002875C52C75C6CFE5C430E4FB53C4EFE53E
:100681004024FFF540E53F34FFF53FE53E34FFF5FB
:0D0691003EE53D34FFF53D80C553C4F72222
:10069E008F448E438D428C4175C40743C408E4FFDA
:1006AE00FEFDFCAB44AA43A942A841C31203266037
:1006BE002875C5D875C6FFE5C430E4FB53C4EFE515
:1006CE004424FFF544E54334FFF543E54234FFF59A
:0D06DE0042E54134FFF54180C553C4F722C9
:0300000002039F59
:10039F0075C7AA75C75575FD5A75C7AA75C755751F
:1003AF00FDA5787FE4F6D8FD9000007FFF7E03E483
:0C03BF00F0A3DFFCDEFA758144020406A6
:1003CB0002044BE493A3F8E493A34003F68001F2F9
:1003DB0008DFF48029E493A3F85407240CC8C33333
:1003EB00C4540F4420C8834004F456800146F6DF02
:1003FB00E4800B0102040810204080900869E47E21
:10040B00019360BCA3FF543F30E509541FFEE493F6
:10041B00A360010ECF54C025E060A840B8E493A3BD
:10042B00FAE493A3F8E493A3C8C582C8CAC583CAE8
:10043B00F0A3C8C582C8CAC583CADFE9DEE780BEA0
:010886000071
:10022200C2D5EC30E709B2D5E4C39DFDE49CFCEEF7
:1002320030E715B2D5E4C39FFFE49EFE12034AC322
:10024200E49DFDE49CFC800312034A30D507C3E41D
:060252009FFFE49EFE2266
:1002580075F008758200EF2FFFEE33FECD33CDCC5D
:1002680033CCC58233C5829BED9AEC99E5829840E0
:100278000CF582EE9BFEED9AFDEC99FC0FD5F0D6BD
:10028800E4CEFBE4CDFAE4CCF9A88222B800C1B9E7
:100298000059BA002DEC8BF084CFCECDFCE5F0CB25
:1002A800F97818EF2FFFEE33FEED33FDEC33FCEB5E
:1002B80033FB10D703994004EB99FB0FD8E5E4F919
:1002C800FA227818EF2FFFEE33FEED33FDEC33FC06
:1002D800C933C910D7059BE99A4007EC9BFCE99AFA
:1002E800F90FD8E0E4C9FAE4CCFB2275F010EF2F3F
:1002F800FFEE33FEED33FDCC33CCC833C810D7073F
:100308009BEC9AE899400AED9BFDEC9AFCE899F879
:0E0318000FD5F0DAE4CDFBE4CCFAE4C8F9220C
:10032600EB9FF5F0EA9E42F0E99D42F0E89C45F02D
:0103360022A4
:10033700E8600FECC313FCED13FDEE13FEEF13FFA4
:03034700D8F122C8
:10034A00BC000BBE0029EF8DF084FFADF022E4CC97
:10035A00F875F008EF2FFFEE33FEEC33FCEE9DEC60
:10036A00984005FCEE9DFE0FD5F0E9E4CEFD22EDA6
:10037A00F8F5F0EE8420D21CFEADF075F008EF2FF0
:10038A00FFED33FD4007985006D5F0F222C398FDE1
:05039A000FD5F0EA227E
:00000001FF
