:1005E20014490014009600FA016801B8023002A80A
:1005F2000334038403FC143501B8023002A8033427
:10060200038403FC0014009600FA01681421038499
:1006120003FC0014009600FA016801B8023002A837
:0206220003349F
:10000300E4F565F566F56753B1FD43B20253B3FEFC
:1000130043B40153B3FD43B40243DE0243DE04435E
:10002300DE1053DF3F53DFEFD2DC538EBF43DF06D7
:1000330053DFFEF5D67FFF7E03120754D2DFE4F5CC
:1000430065F566C3E56564809484501BAF66AE6551
:100053001206F07F147E001206C8740A2566F56640
:10006300E43565F56580DC7565037566FFD3E56684
:100073009400E56564809480401CAF66AE6512060B
:10008300F07F147E001206C874F62566F56674FFC9
:100093003565F56580D7E4F565F566C3E565648088
:1000A3009484501BAF66AE651207057F147E001261
:1000B30006C8740A2566F566E43565F56580DC7562
:1000C30065037566FFD3E5669400E56564809480F7
:1000D300401CAF66AE651207057F147E001206C88A
:1000E30074F62566F56674FF3565F56580D7E4F526
:1000F30065F566C3E56564809484501BAF66AE65A1
:100103001206317F147E001206C8740A2566F5664E
:10011300E43565F56580DC7565037566FFD3E566D3
:100123009400E56564809480401CAF66AE6512065A
:10013300317F147E001206C874F62566F56674FFD7
:100143003565F56580D77F587E021206C8E4F565EC
:10015300F566E4F5671206251206E41206F97FC870
:100163007E001206C80567D3E5676480948940E57D
:100173007567091206251206E41206F97FC87E0088
:100183001206C81567C3E5676480948050E5056669
:10019300E56670020565D39409E565648094804043
:0B01A300B17F587E021206C802004126
:07075400EFF5D9EEF5D1220B
:0B072000EFF5DAEEF5D2D2DED2DF22D8
:0C06E400E56725E02435F8E6FE08E6FF97
:0906F000EFF5DBEEF5D3D2DE22BA
:0C06F900E56725E02421F8E6FE08E6FF96
:09070500EFF5DCEEF5D4D2DE22A2
:09072B00EFF5DDEEF5D5D2DE227A
:0C062500E56725E02449F8E6FE08E6FF42
:10063100A2AF9200C2AF75C7AA75C755439101A277
:100641000092AFEFF5CCEEF5C4A2AF9200C2AF7548
:0F065100C7AA75C7555391FEA20092AFD2DE2201
:10069900A2AF9200C2AF75C7AA75C755439101A20F
:1006A9000092AFEFF5CDEEF5C5A2AF9200C2AF75DE
:0F06B900C7AA75C7555391FEA20092AFD2DE2299
:1006600053B1BF53B2BF53B17F53B27F759850435C
:100670008920438780438E1053C4DFAB07AA06A9A5
:1006800005A8047F407E427D0F7C001201EAEF0442
:09069000F404F58DD28ED29922FA
:10034C008F0B8E0A8D098C0853B1BF53B2BF53B1BA
:10035C007F53B27F75985043878053C4F843C420B1
:10036C00AB0BAA0AA909A8087F407E427D0F7C002E
:10037C001201EAC374FF9FFF74FF9EFEE49DFDE42F
:10038C009CFC780812028D8FC6AB0BAA0AA909A88F
:10039C00087F407E427D0F7C001201EAC374FF9FF0
:0903AC00FF8FC543C408D2992259
:070734003098FDAF99C29857
:01073B00229B
:08073C00C2998F993099FD224A
:1003B5008F0F8E0E8D0D8C0C53B1FB53B2FB53B3C7
:1003C500BF53B4BF75F85075C40853C4DFAB0FAA4B
:1003D5000EA90DA80C7F407E427D0F7C001201EA1C
:1003E500C374FF9FFF74FF9EFEE49DFDE49CFC78B3
:1003F5000812028D8FC6AB0FAA0EA90DA80C7F405F
:100405007E427D0F7C001201EAC374FF9FFF8FC5FA
:0404150043C40822B2
:0707440030F8FDAF9AC2F886
:01074B00228B
:08074C00C2F98F9A30F9FD2279
:100501008F138E128D118C10538EF7438901D28C6B
:10051100E4FFFEFDFCAB13AA12A911A810C312023D
:100521007C6025758A7E758CFF308DFDC28DE5134B
:1005310024FFF513E51234FFF512E51134FFF5112F
:0B054100E51034FFF51080C8C28C22CA
:10054C008F178E168D158C14538EF7438901D28C10
:10055C00E4FFFEFDFCAB17AA16A915A814C31202E2
:10056C007C6025758ACA758CFA308DFDC28DE517B5
:10057C0024FFF517E51634FFF516E51534FFF515D0
:0B058C00E51434FFF51480C8C28C2277
:100597008F1B8E1A8D198C18538EEF438910D28EAC
:1005A700E4FFFEFDFCAB1BAA1AA919A818C3120287
:1005B7007C6025758BEA758DCB308FFDC28FE51B6F
:1005C70024FFF51BE51A34FFF51AE51934FFF51971
:0B05D700E51834FFF51880C8C28E2222
:100419008F1F8E1E8D1D8C1C53C9BF53C9DF43C945
:1004290010D2CAE4FFFEFDFCAB1FAA1EA91DA81C21
:10043900C312027C602575CC3075CDF830CFFDC272
:10044900CFE51F24FFF51FE51E34FFF51EE51D341A
:0E045900FFF51DE51C34FFF51C80C8C2CA2249
:100467008F608E5F8D5E8C5D75C40743C408E4FFA3
:10047700FEFDFCAB60AA5FA95EA85DC312027C60AB
:100487002875C52C75C6CFE5C430E4FB53C4EFE52A
:100497006024FFF560E55F34FFF55FE55E34FFF547
:0D04A7005EE55D34FFF55D80C553C4F722AE
:1004B4008F648E638D628C6175C40743C408E4FF46
:1004C400FEFDFCAB64AA63A962A861C312027C604E
:1004D4002875C5D875C6FFE5C430E4FB53C4EFE501
:1004E4006424FFF564E56334FFF563E56234FFF5E6
:0D04F40062E56134FFF56180C553C4F72255
:030000000202A059
:1002A00075C7AA75C75575FD5A75C7AA75C755751F
:1002B000FDA5787FE4F6D8FD9000007FFF7E03E483
:0C02C000F0A3DFFCDEFA75816702030783
:10070E00D3EF9400EE9400400800EF1F70F21E80AD
:02071E00EF22C8
:1006C800AD07AC06D3ED9400EC9400400EED1D7020
:0C06D800011C7FE87E0312070E80E9225F
:1002CC00020003E493A3F8E493A34003F68001F245
:1002DC0008DFF48029E493A3F85407240CC8C33333
:1002EC00C4540F4420C8834004F456800146F6DF02
:1002FC00E4800B01020408102040809005E2E47EAB
:10030C00019360BCA3FF543F30E509541FFEE493F6
:10031C00A360010ECF54C025E060A840B8E493A3BD
:10032C00FAE493A3F8E493A3C8C582C8CAC583CAE8
:10033C00F0A3C8C582C8CAC583CADFE9DEE780BEA0
:0106240000D5
:1001AE0075F008758200EF2FFFEE33FECD33CDCC08
:1001BE0033CCC58233C5829BED9AEC99E58298408B
:1001CE000CF582EE9BFEED9AFDEC99FC0FD5F0D668
:1001DE00E4CEFBE4CDFAE4CCF9A88222B800C1B992
:1001EE000059BA002DEC8BF084CFCECDFCE5F0CBD0
:1001FE00F97818EF2FFFEE33FEED33FDEC33FCEB09
:10020E0033FB10D703994004EB99FB0FD8E5E4F9C3
:10021E00FA227818EF2FFFEE33FEED33FDEC33FCB0
:10022E00C933C910D7059BE99A4007EC9BFCE99AA4
:10023E00F90FD8E0E4C9FAE4CCFB2275F010EF2FE9
:10024E00FFEE33FEED33FDCC33CCC833C810D707E9
:10025E009BEC9AE899400AED9BFDEC9AFCE899F824
:0E026E000FD5F0DAE4CDFBE4CCFAE4C8F922B7
:10027C00EB9FF5F0EA9E42F0E99D42F0E89C45F0D8
:01028C00224F
:10028D00E8600FECC313FCED13FDEE13FEEF13FF4F
:03029D00D8F12273
:00000001FF
