:1000F500E4F508F50953B3FD43B40253B3FB43B428
:100105000443DE0143DE0243DF4053DF7F43DF105C
:10011500D2DC538EBF43DF0653DFFE43D60143D601
:10012500027F587E0212055E7F287E001204FBA224
:10013500AF9200C2AF75C7AA75C75543F901A200B2
:1001450092AFD2DFE4F508F509AF09AE081205183C
:100155007F057E007D007C001203A20509E509707C
:10016500020508C39458E5086480948240DB75084D
:1001750002750958D3E5099400E508648094804028
:10018500C3AF09AE081205187F057E007D007C000F
:0D0195001203A2E509150970DB150880D7DB
:07055E00EFF5D9EEF5D12203
:0B051800EFF5DAEEF5D2D2DED2DF22E2
:09052300EFF5DBEEF5D3D2DE2288
:09052C00EFF5DCEEF5D4D2DE227D
:09053500EFF5DDEEF5D5D2DE2272
:10047100A2AF9200C2AF75C7AA75C755439101A239
:100481000092AFEFF5CCEEF5C4A2AF9200C2AF750A
:0F049100C7AA75C7555391FEA20092AFD2DE22C3
:1004A000A2AF9200C2AF75C7AA75C755439101A20A
:1004B0000092AFEFF5CDEEF5C5A2AF9200C2AF75D9
:0F04C000C7AA75C7555391FEA20092AFD2DE2294
:1004FB00EFFCEE5401A2AF9200C2AF75C7AA75C74D
:0C050B005553F9EF42F98CFAA20092AFB0
:0105170022C1
:1004380053B1BF53B2BF53B17F53B27F7598504386
:100448008920438780438E1053C4DFAB07AA06A9CF
:1004580005A8047F407E427D0F7C0012003FEF0418
:09046800F404F58DD28ED2992224
:1001A2008F118E108D0F8C0E53B1BF53B2BF53B14E
:1001B2007F53B27F75985043878053C4F843C4205D
:1001C200AB11AA10A90FA80E7F407E427D0F7C00C2
:1001D20012003FC374FF9FFF74FF9EFEE49DFDE487
:1001E2009CFC78081200E28FC6AB11AA10A90FA8D6
:1001F2000E7F407E427D0F7C0012003FC374FF9F42
:09020200FF8FC543C408D2992204
:07053E003098FDAF99C2984F
:010545002293
:08054600C2998F993099FD2242
:10020B008F158E148D138C1253B1FB53B2FB53B35A
:10021B00BF53B4BF75F85075C40853C4DFAB15AAF0
:10022B0014A913A8127F407E427D0F7C0012003F61
:10023B00C374FF9FFF74FF9EFEE49DFDE49CFC785E
:10024B00081200E28FC6AB15AA14A913A8127F409F
:10025B007E427D0F7C0012003FC374FF9FFF8FC552
:04026B0043C408225E
:07054E0030F8FDAF9AC2F87E
:010555002283
:08055600C2F98F9A30F9FD2271
:100357008F198E188D178C16538EF7438901D28CFF
:10036700E4FFFEFDFCAB19AA18A917A816C31200D3
:10037700D16025758A7E758CFF308DFDC28DE5199C
:1003870024FFF519E51834FFF518E51734FFF517BD
:0B039700E51634FFF51680C8C28C226A
:1003A2008F0D8E0C8D0B8C0A538EF7438901D28CE4
:1003B200E4FFFEFDFCAB0DAA0CA90BA80AC31200B8
:1003C200D16025758ACA758CFA308DFDC28DE50D16
:1003D20024FFF50DE50C34FFF50CE50B34FFF50BAE
:0B03E200E50A34FFF50A80C8C28C2237
:1003ED008F1D8E1C8D1B8C1A538EEF438910D28E50
:1003FD00E4FFFEFDFCAB1DAA1CA91BA81AC312002D
:10040D00D16025758BEA758DCB308FFDC28FE51DC3
:10041D0024FFF51DE51C34FFF51CE51B34FFF51B12
:0B042D00E51A34FFF51A80C8C28E22C9
:10026F008F248E238D228C2153C9BF53C9DF43C9DD
:10027F0010D2CAE4FFFEFDFCAB24AA23A922A821B9
:10028F00C31200D1602575CC3075CDF830CFFDC2CB
:10029F00CFE52424FFF524E52334FFF523E52234AD
:0E02AF00FFF522E52134FFF52180C8C2CA22E6
:1002BD008F288E278D268C2575C40743C408E4FF2F
:1002CD00FEFDFCAB28AA27A926A825C31200D160E4
:1002DD002875C52C75C6CFE5C430E4FB53C4EFE5D6
:1002ED002824FFF528E52734FFF527E52634FFF50B
:0D02FD0026E52534FFF52580C553C4F72202
:10030A008F2C8E2B8D2A8C2975C40743C408E4FFD1
:10031A00FEFDFCAB2CAA2BA92AA829C31200D16086
:10032A002875C5D875C6FFE5C430E4FB53C4EFE5AC
:10033A002C24FFF52CE52B34FFF52BE52A34FFF5A9
:0D034A002AE52934FFF52980C553C4F722A8
:030000000204CF28
:1004CF0075C7AA75C75575FD5A75C7AA75C75575EE
:1004DF00FDA5787FE4F6D8FD9000007FFF7E03E452
:0C04EF00F0A3DFFCDEFA75812C0200F5A2
:1000030075F008758200EF2FFFEE33FECD33CDCCB4
:1000130033CCC58233C5829BED9AEC99E582984037
:100023000CF582EE9BFEED9AFDEC99FC0FD5F0D614
:10003300E4CEFBE4CDFAE4CCF9A88222B800C1B93E
:100043000059BA002DEC8BF084CFCECDFCE5F0CB7C
:10005300F97818EF2FFFEE33FEED33FDEC33FCEBB5
:1000630033FB10D703994004EB99FB0FD8E5E4F970
:10007300FA227818EF2FFFEE33FEED33FDEC33FC5D
:10008300C933C910D7059BE99A4007EC9BFCE99A51
:10009300F90FD8E0E4C9FAE4CCFB2275F010EF2F96
:1000A300FFEE33FEED33FDCC33CCC833C810D70796
:1000B3009BEC9AE899400AED9BFDEC9AFCE899F8D1
:0E00C3000FD5F0DAE4CDFBE4CCFAE4C8F92264
:1000D100EB9FF5F0EA9E42F0E99D42F0E89C45F085
:0100E10022FC
:1000E200E8600FECC313FCED13FDEE13FEEF13FFFC
:0300F200D8F12220
:00000001FF
