:10126D004E3736453030332044533138423230001A
:10127D00542F20430020202020002020202020203B
:06128D00002E20200000ED
:0A1385000811000609090600000027
:100E0E00E4F524F523F522F521121390120ED712D4
:100E1E001245E4FDFF12131A7BFF7A12796D12123E
:100E2E00937D01E4FF12131A7BFF7A12797D121261
:100E3E00937D017F0212131A7D01E4FF1212EE124E
:100E4E000B778F248E238D228C218F2A8E298D282D
:100E5E008C27752B037D017F091208D27F647E00DB
:050E6E001212B880DA49
:10124500E4F525FD7F401212EEE4F5257411252500
:10125500F8E6FF7D011212EE0525E525C394084049
:08126500EBE4FD7F800212EEB4
:080A62008F088D098A0A8B0B35
:100A6A00780C7C007D007BFF7A1279827E007F05FC
:100A7A0012041AC3E50A648094805010750C2DC3C1
:100A8A00E4950BF50BE4950AF50A8003750C20D35F
:100A9A00E50B9463E50A64809480404CD3E50B949B
:100AAA00E7E50A64809483503FAE0AAF0B7C007D71
:100ABA0064120459EF2430F50DAE0AAF0B7C007DA9
:100ACA00641204597E007F0ACFCDCFCECCCE120459
:100ADA0059EF2430F50EAE0AAF0B7C007D0A1204E2
:100AEA0059ED2430F50F8075D3E50B9409E50A64B6
:100AFA00809480403CD3E50B9463E50A648094803B
:100B0A00502FAE0AAF0B7C007D641204597E007F21
:100B1A000ACFCDCFCECCCE120459EF2430F50DAE8C
:100B2A000AAF0B7C007D0A120459ED2430F50E80C1
:100B3A0029C3E50A648094804023D3E50B9409E530
:100B4A000A648094805016AE0AAF0B7C007D0A12AC
:100B5A000459ED2430F50D750E20750F20AD09AF3F
:0D0B6A000812131A7B007A00790C02129316
:0405FA008F308D3180
:1005FE0078367C007D007BFF7A1279877E007F073C
:10060E0012041AAF35AE34AD33AC32EC3350107534
:10061E00362D12055D8F358E348D338C32800375F9
:10062E003620E47F0F7E27FDFCAB35AA34A933A814
:10063E0032D312056B50030206F0E47B107A27F9D1
:10064E00F8AF35AE34AD33AC321210F7EF2430F5CF
:10065E0037E47B107A27F9F8AF35AE34AD33AC32D0
:10066E001210F7AC00AD01AE02AF03E47BE87A03E3
:10067E00F9F81210F7EF2430F538E47BE87A03F935
:10068E00F8AF35AE34AD33AC321210F7AC00AD016D
:10069E00AE02AF03E47B64FAF9F81210F7EF2430E0
:1006AE00F539E47B64FAF9F8AF35AE34AD33AC32DC
:1006BE001210F7AC00AD01AE02AF03E47B0AFAF9FB
:1006CE00F81210F7EF2430F53AE47B0AFAF9F8AF96
:1006DE0035AE34AD33AC321210F7EB2430F53B02AD
:1006EE0008C2E47FE77E03FDFCAB35AA34A933A82C
:1006FE0032D312056B50030207ABE47F0F7E27FD4A
:10070E00FCA832D312056B40030207ABE47B107AD0
:10071E0027F9F8AF35AE34AD33AC321210F7AC006A
:10072E00AD01AE02AF03E47BE87A03F9F81210F7DD
:10073E00EF2430F537E47BE87A03F9F8AF35AE34C1
:10074E00AD33AC321210F7AC00AD01AE02AF03E424
:10075E007B64FAF9F81210F7EF2430F538E47B6475
:10076E00FAF9F8AF35AE34AD33AC321210F7AC0047
:10077E00AD01AE02AF03E47B0AFAF9F81210F7EFFF
:10078E002430F539E47B0AFAF9F8AF35AE34AD33DF
:10079E00AC321210F7EB2430F53A0208BFE47F6357
:1007AE00FEFDFCAB35AA34A933A832D312056B403B
:1007BE007AE47FE77E03FDFCA832D312056B506B03
:1007CE00E47BE87A03F9F8AF35AE34AD33AC3212D0
:1007DE0010F7AC00AD01AE02AF03E47B64FAF9F89A
:1007EE001210F7EF2430F537E47B64FAF9F8AF35E1
:1007FE00AE34AD33AC321210F7AC00AD01AE02AF79
:10080E0003E47B0AFAF9F81210F7EF2430F538E416
:10081E007B0AFAF9F8AF35AE34AD33AC321210F7BD
:10082E00EB2430F539753A200208BFE47F09FEFD4E
:10083E00FCAB35AA34A933A832D312056B4053E46E
:10084E007F63FEFDFCA832D312056B5045E47B643A
:10085E00FAF9F8AF35AE34AD33AC321210F7AC0056
:10086E00AD01AE02AF03E47B0AFAF9F81210F7EF0E
:10087E002430F537E47B0AFAF9F8AF35AE34AD33F0
:10088E00AC321210F7EB2430F538753920753A205A
:10089E00801FE47B0AFAF9F8AF35AE34AD33AC32D3
:1008AE001210F7EB2430F537753820753920753A6C
:1008BE0020753B20AD31AF3012131A7B007A0079D0
:0408CE003602129349
:080D35008F308D318A328B33BF
:100D3D0078357C007D007BFF7A12798E7E007F05F1
:100D4D0012041AAE32AF337C007D64120459EF24C5
:100D5D0030F536E534D39401402EAE32AF337C00FE
:100D6D007D0A1204597C007D0A120459ED2430F5D8
:100D7D0037E534D394014010AE32AF337C007D0A99
:100D8D00120459ED2430F538AD31AF3012131A7B02
:080D9D00007A0079350212937F
:0408D2008F258D26BB
:1008D600E4F52FF52EF52DF52CAF2AAE29AD28AC73
:1008E600271202C98F2F8E2E8D2D8C2C8F358E348C
:1008F6008D338C32AD26AF251205FAAF2FAE2EAD55
:100906002DAC2CEC12028BA804A905AA06AB07AFE6
:100916002AAE29AD28AC27120006E4FBFA797A78CC
:10092600441200FB1202C98F2F8E2E8D2D8C2CECBB
:1009360033500B12055D8F2F8E2E8D2D8C2CE4FFE0
:10094600FEFDFCAB2AAA29A928A827120201501EDF
:10095600AF2AAE29AD28AC2712027A8F2A8E298DAE
:10096600288C27AD26AF2512131A7F2D8009AD26B8
:10097600AF2512131A7F201213047F007E407D1CC0
:100986007C46AB2AAA29A928A827120201401C7F67
:10099600007E507DC37C47AB2AAA29A928A8271226
:1009A60002015007E5252406020A54E4FFFE7D7A7B
:1009B6007C44AB2AAA29A928A827120201401B7F3A
:1009C600007E407D1C7C46AB2AAA29A928A82712AE
:1009D60002015006E52524058074E4FFFE7DC87CEF
:1009E60042AB2AAA29A928A827120201401AE4FF25
:1009F600FE7D7A7C44AB2AAA29A928A827120201DF
:100A06005006E52524048046E4FFFE7D207C41ABAC
:100A16002AAA29A928A827120201401AE4FFFE7D66
:100A2600C87C42AB2AAA29A928A827120201500687
:100A3600E52524038018E4FFFE7D207C41AB2AAA2D
:100A460029A928A8271202015011E5252402FFAA88
:0B0A56002EAB2F852B34AD26120D3582
:010A61002272
:10117A0053B1BF53B2BF53B17F53B27F7598504337
:10118A008920438780438E1053C4DFAB07AA06A980
:10119A0005A8047F407E427D0F7C001204CBEF0439
:0911AA00F404F58DD28ED29922D5
:100DA5008F1C8E1B8D1A8C1953B1BF53B2BF53B113
:100DB5007F53B27F75985043878053C4F843C4204E
:100DC500AB1CAA1BA91AA8197F407E427D0F7C0087
:100DD5001204CBC374FF9FFF74FF9EFEE49DFDE4E8
:100DE5009CFC78081205928FC6AB1CAA1BA91AA8F1
:100DF500197F407E427D0F7C001204CBC374FF9F98
:090E0500FF8FC543C408D29922F5
:07139A003098FDAF99C298E5
:0113A1002229
:0813A200C2998F993099FD22D8
:100E73008F448E438D428C4153B1FB53B2FB53B32A
:100E8300BF53B4BF75F85075C40853C4DFAB44AA4D
:100E930043A942A8417F407E427D0F7C001204CBD0
:100EA300C374FF9FFF74FF9EFEE49DFDE49CFC78EA
:100EB300081205928FC6AB44AA43A942A8417F40BA
:100EC3007E427D0F7C001204CBC374FF9FFF8FC54E
:040ED30043C40822EA
:0713AA0030F8FDAF9AC2F814
:0113B1002219
:0813B200C2F98F9A30F9FD2207
:101016008F488E478D468C45538EF7438901D28C77
:10102600E4FFFEFDFCAB48AA47A946A845C3120546
:10103600816025758A7E758CFF308DFDC28DE548F1
:1010460024FFF548E54734FFF547E54634FFF54606
:0B105600E54534FFF54580C8C28C2240
:101061008F4C8E4B8D4A8C49538EF7438901D28C1C
:10107100E4FFFEFDFCAB4CAA4BA94AA849C31205EB
:10108100816025758ACA758CFA308DFDC28DE54C5B
:1010910024FFF54CE54B34FFF54BE54A34FFF54AA7
:0B10A100E54934FFF54980C8C28C22ED
:1010AC008F508E4F8D4E8C4D538EEF438910D28EB8
:1010BC00E4FFFEFDFCAB50AA4FA94EA84DC3120590
:1010CC00816025758BEA758DCB308FFDC28FE55015
:1010DC0024FFF550E54F34FFF54FE54E34FFF54E48
:0B10EC00E54D34FFF54D80C8C28E2298
:100F2E008F548E538D528C5153C9BF53C9DF43C951
:100F3E0010D2CAE4FFFEFDFCAB54AA53A952A8512D
:100F4E00C3120581602575CC3075CDF830CFFDC24A
:100F5E00CFE55424FFF554E55334FFF553E55234F1
:0E0F6E00FFF552E55134FFF55180C8C2CA228A
:100F7C008F588E578D568C5575C40743C408E4FFA3
:100F8C00FEFDFCAB58AA57A956A855C312058160A3
:100F9C002875C52C75C6CFE5C430E4FB53C4EFE50A
:100FAC005824FFF558E55734FFF557E55634FFF54F
:0D0FBC0056E55534FFF55580C553C4F722A6
:100FC9008F5C8E5B8D5A8C5975C40743C408E4FF46
:100FD900FEFDFCAB5CAA5BA95AA859C31205816046
:100FE9002875C5D875C6FFE5C430E4FB53C4EFE5E1
:100FF9005C24FFF55CE55B34FFF55BE55A34FFF5EE
:0D1009005AE55934FFF55980C553C4F7224C
:10134500D3EF9400EE9400400800EF1F70F21E806A
:02135500EF2285
:1012B800AD07AC06D3ED9400EC9400400EED1D7024
:0C12C800011C7FE87E0312134580E92220
:0A13900012121A7F647E000212B8E8
:100B7700E4F525F526F52AF529F528F52712121AA1
:100B87007FCC12113B7F4412113BE47028740C2474
:100B9700F7601B1460121460091470197FEE7E024F
:100BA70080107F777E01800A7FBC7E0080047F5E95
:100BB7007E001212B812121A7FCC12113B7FBE129E
:100BC700113B1211EB8F261211EB8F25AC25E41286
:100BD70002958F2A8E298D288C27E4FBFA79807855
:100BE700431200FB8F2A8E298D288C27AB2AAA292E
:100BF700A928A827C000C001C002C003AC26E41280
:100C07000295D003D002D001D00012000A8F2A8E9D
:100C1700298D288C27E4705A740C24F7603B1460E4
:100C27002714601414704BAF2AAE29AD28AC27E403
:100C3700FBFA7980783D802FAF2AAE29AD28AC2703
:100C4700E4FBFAF9783E801FAF2AAE29AD28AC271E
:100C5700E4FBFA7980783E800EAF2AAE29AD28AC46
:100C670027E4FBFAF9783F1200FB8F2A8E298D289B
:100C77008C277F287E001212B8AF2AAE29AD28AC88
:010C87002745
:010C88002249
:10121A00E4F52B43B14043B240C2867FE07E01121F
:10122A001345D2867F3C7E00121345A286E433F52D
:0A123A002B7FE07E01121345AF2B5D
:011244002287
:0F136800C286EF60097F687E00121345D286228D
:10135700C286D2867F0F7E00121345A286E433FF32
:011367002263
:02113B008F2BF8
:10113D00E4F52C74017E00A82C088005C333CE3352
:10114D00CED8F9FFEF552B600EC28600D2867F3CBC
:10115D007E00121345800CC2867F3C7E0012134523
:0C116D00D28600052CE52CC3940840C776
:011179002253
:1011EB00E4F52BF52CC28600D28630860FAF2B741C
:1011FB0001A807088002C333D8FC422C7F3C7E0039
:0E120B00121345052BE52BC3940840D9AF2CD8
:0112190022B2
:0811B30054F0FF531D0F421D13
:1011BB007E08AD1DC284EED394004021ED5480C453
:1011CB001313135401FF530701EF7004C282800203
:0F11DB00D282D283ED25E0FD1EC28380D9D2845B
:0111EA0022E2
:100ED7007F0A7E001212B853B1FB43B20453B1F735
:100EE70043B20853B1EF43B2107F0A7E001212B823
:100EF700751D081211BB7F0A7E001212B8E4FD7F30
:100F0700331212EEE4FD7F321212EEE4FD7F281257
:100F170012EEE4FD7F0C1212EEE4FD7F011212EED9
:070F2700E4FD7F060212EE5B
:1012D400431D081211BB7F017E001212B8531DF783
:0A12E4001211BB7F017E000212B858
:1012EE00AC07ED147005431D048003531DFB121152
:0612FE00BBAF0402133037
:021330008F40EC
:10133200E5401211B31212D4E540540FC41211B396
:031342000212D4C0
:101293008B3D8A3E893FAB3DAA3EA93F1204406085
:1012A30013053FE53F7002053E14F9120440FF1297
:0512B300130480E2229B
:10130400C3EF648094A0400DD3EF648094FF500534
:061314007D011212EE2221
:0E137700E4FD7F011212EEE4FD7F020212EE91
:10131A008F3DED7006E53D44808004E53D44C0FF05
:06132A00E4FD1212EE22A8
:03000000020C8966
:100C890075C7AA75C75575FD5A75C7AA75C755752C
:100C9900FDA5787FE4F6D8FD9000007FFF7E03E490
:0C0CA900F0A3DFFCDEFA75815C020CF0A9
:10000300020335E86480F8E933E83360110460F0F3
:10001300ED33EC337009E8FCE9FDEAFEEBFF220463
:1000230060DED3EB9FEA9EE99DE8C2E78CF0C2F75E
:1000330095F0400CE8CCF8E9CDF9EACEFAEBCFFB2A
:1000430012030085D0F05804700320D5B3E8047080
:10005300075002B2D502033F92D5EC0460F7E4CC1B
:10006300C0E0C398F8603B94186008400DD0E0FBF3
:10007300020317E4FBFAC9FC8028E830E406E4C96C
:10008300FBE4CAFCE830E305E4C9CACBFCE8540747
:100093006010F8C3E913F9EA13FAEB13FBEC13FC52
:1000A300D8F130F52FC3E49CFCEF9BFFEE9AFEEDF5
:1000B30099FDD0E0FBEF4E4D4C701222DB0302039F
:1000C3003CEC2CFCEF33FFEE33FEED33FDED30E77C
:1000D300EB020317EF2BFFEE3AFEED39FDD0E0FB09
:1000E30050130BBB000302033FED13FDEE13FEEFB2
:0800F30013FFEC13FC020317DC
:1000FB00EC4D6011E8497017ED33EC3304600DE4FF
:10010B00FCFFFEFD22E933E8330470F802033512DD
:10011B00030058046009E4CC2481500628500902DE
:10012B00033F28400302033CC0E0EB4A7044B98014
:10013B0006D0E0FB02032BEF4E701CBD8008EBFFDB
:10014B00EAFEE9FD80EBE98DF0A4FEE5F00201E4A7
:10015B00E9CDF9EAFEEBFFEF89F0A4FCE5F0CE89DF
:10016B00F0A42EFFE435F0CD89F0A42DFEE435F09C
:10017B008067EF4E7005BD80D780C3EF8BF0A4ACCA
:10018B00F0EE8BF0A42CFCE435F0F8EF8AF0A42C05
:10019B00E5F038FCE433CB8DF0A42CFCE5F03BF818
:1001AB00EE8AF0A42CFCE5F038F8E433CF89F0A408
:1001BB002CFCE5F038CF3400CE89F0A42FFFE5F00E
:1001CB003EFEE433C98DF0A42EFEE5F039CD8AF066
:1001DB00A42FFFE5F03EFEE43DFD33D0E0FB5007DE
:1001EB000BBB000F02033FEC2CFCEF33FFEE33FE97
:0601FB00ED33FD020317C5
:1002010074F8CC6480CCC86480C8F58204604FC3A4
:10021100EB9FF5F0EA9E42F0E99D42F0E89C45F043
:10022100603C501DE5825FFFE582D313CB5BCBF4CD
:100231002B5582FB50280ABA002409B900200880F6
:100241001DE5825BFBE582D313CF5FCFF4C3132F90
:100251005582FF50090EBE00050DBD00010CC3EB18
:100261009FF5F0EA9E42F0E99D42F0E89C45F0607E
:0902710007CC4820E701B3EC22A0
:10027A00ED33EC33600A047003BD8004ECB2E7FC92
:01028A002251
:10028B0075F020800E75F010800575F0087D007EEE
:10029B00007F003392D530D50312055DEC3340104F
:1002AB00EF33FFEE33FEED33FDEC33FCD5F0ED22F7
:0E02BB00E5F0247EA2D513CC92E7CDCEFF2233
:1002C900EDD2E7CD33EC3392D524814006E4FFFE2D
:1002D900FDFC22FCE4CFCECDCC24E0501174FF808C
:1002E900EDC3CC13CCCD13CDCE13CECF13CF047029
:0702F900F030D5DE02055DC7
:10030000E9D2E7C933E833F892D5EDD2E7CD33EC43
:0703100033FC5002B2D522BC
:10031700EC30E7100FBF000C0EBE00080DBD000447
:100327000BEB6014A2D5EB13FCED92E7FD2274FFF3
:10033700FCFDFEFF22E480F8A2D574FF13FC7D804C
:03034700E480EF60
:100CB500020E0EE493A3F8E493A34003F68001F239
:100CC50008DFF48029E493A3F85407240CC8C33340
:100CD500C4540F4420C8834004F456800146F6DF0F
:100CE500E4800B0102040810204080901385E47E07
:100CF500019360BCA3FF543F30E509541FFEE49304
:100D0500A360010ECF54C025E060A840B8E493A3CA
:100D1500FAE493A3F8E493A3C8C582C8CAC583CAF5
:100D2500F0A3C8C582C8CAC583CADFE9DEE780BEAD
:01138F00005D
:10034A00E709F608DFFA8046E709F208DFFA803E95
:10035A0088828C83E709F0A3DFFA8032E309F60882
:10036A00DFFA8078E309F208DFFA807088828C83EA
:10037A00E309F0A3DFFA806489828A83E0A3F6089E
:10038A00DFFA805889828A83E0A3F208DFFA804C78
:10039A0080D280FA80C680D4806980F2803380104F
:1003AA0080A680EA809A80A880DA80E280CA8033B8
:1003BA0089828A83ECFAE493A3C8C582C8CCC58330
:1003CA00CCF0A3C8C582C8CCC583CCDFE9DEE78000
:1003DA000D89828A83E493A3F608DFF9ECFAA9F07F
:1003EA00EDFB2289828A83ECFAE0A3C8C582C8CCD5
:1003FA00C583CCF0A3C8C582C8CCC583CCDFEADEEE
:10040A00E880DB89828A83E493A3F208DFF980CC4F
:10041A0088F0EF60010E4E60C388F0ED2402B40448
:10042A000050B9F582EB2402B4040050AF232345EF
:06043A00822390039A7377
:10044000BB010689828A83E0225002E722BBFE02BA
:09045000E32289828A83E49322ED
:10045900C2D5EC30E709B2D5E4C39DFDE49CFCEEBE
:1004690030E715B2D5E4C39FFFE49EFE1205A5C38C
:10047900E49DFDE49CFC80031205A530D507C3E487
:060489009FFFE49EFE222D
:10048F0075F008758200EF2FFFEE33FECD33CDCC24
:10049F0033CCC58233C5829BED9AEC99E5829840A7
:1004AF000CF582EE9BFEED9AFDEC99FC0FD5F0D684
:1004BF00E4CEFBE4CDFAE4CCF9A88222B800C1B9AE
:1004CF000059BA002DEC8BF084CFCECDFCE5F0CBEC
:1004DF00F97818EF2FFFEE33FEED33FDEC33FCEB25
:1004EF0033FB10D703994004EB99FB0FD8E5E4F9E0
:1004FF00FA227818EF2FFFEE33FEED33FDEC33FCCD
:10050F00C933C910D7059BE99A4007EC9BFCE99AC0
:10051F00F90FD8E0E4C9FAE4CCFB2275F010EF2F05
:10052F00FFEE33FEED33FDCC33CCC833C810D70705
:10053F009BEC9AE899400AED9BFDEC9AFCE899F840
:0E054F000FD5F0DAE4CDFBE4CCFAE4C8F922D3
:1010F700C2D5E830E70FB2D5E4C39BFBE49AFAE424
:1011070099F9E498F8EC30E717B2D512112D1204CB
:10111700CBE4C39BFBE49AFAE499F9E498F88003DB
:101127001204CB30D50DE4C39FFFE49EFEE49DFD82
:04113700E49CFC2216
:0E055D00C3E49FFFE49EFEE49DFDE49CFC22AF
:10056B00EB9FF5F0EA9E42F0E99D42F0EC6480C807
:06057B0064809845F022A7
:10058100EB9FF5F0EA9E42F0E99D42F0E89C45F0D0
:010591002247
:10059200E8600FECC313FCED13FDEE13FEEF13FF47
:0305A200D8F1226B
:1005A500BC000BBE0029EF8DF084FFADF022E4CC3A
:1005B500F875F008EF2FFFEE33FEEC33FCEE9DEC03
:1005C500984005FCEE9DFE0FD5F0E9E4CEFD22ED49
:1005D500F8F5F0EE8420D21CFEADF075F008EF2F93
:1005E500FFED33FD4007985006D5F0F222C398FD84
:0505F5000FD5F0EA2221
:00000001FF
