:10017300A2AF9200C2AF75C7AA75C755439F01A22C
:100183000092AF75A604E4F5A775AE0F75AFE1A2B3
:10019300AF9200C2AF75C7AA75C75543A504A200A5
:1001A30092AFA2AF9200C2AF75C7AA75C75543A459
:1001B30001A20092AFE59F20E6FBA2AF9200C2AF7F
:1001C30075C7AA75C75553A5FBA20092AFA2AF92FC
:1001D30000C2AF75C7AA75C755539FFEA20092AF61
:0101E30022F9
:1000F500E4F50853B3DF43B4207FE87E03FDFC122B
:1001050003E4E4F508B2957F3C7E007D007C001297
:1001150003E40508E508D3940940EA75C7AA75C73D
:100125005575AA07A2AF9200C2AF75C7AA75C75584
:1001350043AA40A20092AFE5AA44BFF460F9D2AF4A
:10014500A2AF9200C2AF75C7AA75C75543AA80A2D0
:100155000092AFE4F508B2957FC87E007D007C0073
:0E0165001203E40508E508D3940940EA80FE81
:10047A0053B1BF53B2BF53B17F53B27F7598504344
:10048A008920438780438E1053C4DFAB07AA06A98D
:10049A0005A8047F407E427D0F7C0012003FEF04D6
:0904AA00F404F58DD28ED29922E2
:1001E4008F108E0F8D0E8C0D53B1BF53B2BF53B110
:1001F4007F53B27F75985043878053C4F843C4201B
:10020400AB10AA0FA90EA80D7F407E427D0F7C0083
:1002140012003FC374FF9FFF74FF9EFEE49DFDE444
:100224009CFC78081200E28FC6AB10AA0FA90EA896
:100234000D7F407E427D0F7C0012003FC374FF9F00
:09024400FF8FC543C408D29922C2
:0704DF003098FDAF99C298AF
:0104E60022F3
:0804E700C2998F993099FD22A2
:10024D008F148E138D128C1153B1FB53B2FB53B31C
:10025D00BF53B4BF75F85075C40853C4DFAB14AAAF
:10026D0013A912A8117F407E427D0F7C0012003F22
:10027D00C374FF9FFF74FF9EFEE49DFDE49CFC781C
:10028D00081200E28FC6AB14AA13A912A8117F4061
:10029D007E427D0F7C0012003FC374FF9FFF8FC510
:0402AD0043C408221C
:0704EF0030F8FDAF9AC2F8DE
:0104F60022E3
:0804F700C2F98F9A30F9FD22D1
:100399008F188E178D168C15538EF7438901D28CC1
:1003A900E4FFFEFDFCAB18AA17A916A815C3120095
:1003B900D16025758A7E758CFF308DFDC28DE5185B
:1003C90024FFF518E51734FFF517E51634FFF51680
:0B03D900E51534FFF51580C8C28C222A
:1003E4008F0C8E0B8D0A8C09538EF7438901D28CA6
:1003F400E4FFFEFDFCAB0CAA0BA90AA809C312007A
:10040400D16025758ACA758CFA308DFDC28DE50CD4
:1004140024FFF50CE50B34FFF50BE50A34FFF50A70
:0B042400E50934FFF50980C8C28C22F6
:10042F008F1C8E1B8D1A8C19538EEF438910D28E11
:10043F00E4FFFEFDFCAB1CAA1BA91AA819C31200EE
:10044F00D16025758BEA758DCB308FFDC28FE51C82
:10045F0024FFF51CE51B34FFF51BE51A34FFF51AD5
:0B046F00E51934FFF51980C8C28E2289
:1002B1008F248E238D228C2153C9BF53C9DF43C99B
:1002C10010D2CAE4FFFEFDFCAB24AA23A922A82177
:1002D100C31200D1602575CC3075CDF830CFFDC289
:1002E100CFE52424FFF524E52334FFF523E522346B
:0E02F100FFF522E52134FFF52180C8C2CA22A4
:1002FF008F288E278D268C2575C40743C408E4FFED
:10030F00FEFDFCAB28AA27A926A825C31200D160A1
:10031F002875C52C75C6CFE5C430E4FB53C4EFE593
:10032F002824FFF528E52734FFF527E52634FFF5C8
:0D033F0026E52534FFF52580C553C4F722BF
:10034C008F2C8E2B8D2A8C2975C40743C408E4FF8F
:10035C00FEFDFCAB2CAA2BA92AA829C31200D16044
:10036C002875C5D875C6FFE5C430E4FB53C4EFE56A
:10037C002C24FFF52CE52B34FFF52BE52A34FFF567
:0D038C002AE52934FFF52980C553C4F72266
:030000000204B344
:1004B30075C7AA75C75575FD5A75C7AA75C755750A
:1004C300FDA5787FE4F6D8FD9000007FFF7E03E46E
:0C04D300F0A3DFFCDEFA75812C0200F5BE
:1000030075F008758200EF2FFFEE33FECD33CDCCB4
:1000130033CCC58233C5829BED9AEC99E582984037
:100023000CF582EE9BFEED9AFDEC99FC0FD5F0D614
:10003300E4CEFBE4CDFAE4CCF9A88222B800C1B93E
:100043000059BA002DEC8BF084CFCECDFCE5F0CB7C
:10005300F97818EF2FFFEE33FEED33FDEC33FCEBB5
:1000630033FB10D703994004EB99FB0FD8E5E4F970
:10007300FA227818EF2FFFEE33FEED33FDEC33FC5D
:10008300C933C910D7059BE99A4007EC9BFCE99A51
:10009300F90FD8E0E4C9FAE4CCFB2275F010EF2F96
:1000A300FFEE33FEED33FDCC33CCC833C810D70796
:1000B3009BEC9AE899400AED9BFDEC9AFCE899F8D1
:0E00C3000FD5F0DAE4CDFBE4CCFAE4C8F92264
:1000D100EB9FF5F0EA9E42F0E99D42F0E89C45F085
:0100E10022FC
:1000E200E8600FECC313FCED13FDEE13FEEF13FFFC
:0300F200D8F12220
:00000001FF
