:100734004D4943524F4152454E41005353686168FD
:100744007279696172004E75766F746F6E20382D00
:0F075400626974207543004E37364530303300EC
:10020400E4F52178227C00FD7BFF7A077934FE7FB8
:100214000B1200D3782D7C007D007BFF7A07793F99
:100224007E007F0B1200D378387C007D007BFF7A40
:1002340007794A7E007F111200D378497C007D0043
:100244007BFF7A07795B7E007F081200D31203A735
:100254001207FFE4FD7F031207DA7B007A0079229C
:1002640012078F7D017F031207DA7B007A00792D54
:1002740012078F7F1E7E007D007C0012058012070E
:10028400FFE4F521E4FDAF211207DA74382521F8E3
:10029400E6FF12082D7F5A7E007D007C0012066561
:1002A4000521E521C3941040DB7F147E007D007C92
:1002B40000120580E4F521E5212404FF7D011207E5
:1002C400DA74492521F8E6FF12082D7F5A7E007D55
:1002D400007C001206650521E521C3940740D87F00
:1002E4001E7E007D007C00120580E4F5211207FFCC
:1002F400E4FD7F031207DA7B007A00792212078F6C
:10030400AF211204E305217F047E007D007C0012EE
:04031400058080ECF4
:0204E3008F5137
:1004E500E4F552E55175F064842430F5527D017FC1
:1004F500061207DAAF5212082DE55175F00A847518
:10050500F00A84E5F02430F5527D017F071207DA01
:10051500AF5212082DE55175F00A84E5F02430F547
:0D052500527D017F081207DAAF5202082D47
:1006FB0053B1BF53B2BF53B17F53B27F75985043C1
:10070B008920438780438E1053C4DFAB07AA06A909
:10071B0005A8047F407E427D0F7C0012014EEF0442
:09072B00F404F58DD28ED299225E
:100416008F0B8E0A8D098C0853B1BF53B2BF53B1EF
:100426007F53B27F75985043878053C4F843C420E6
:10043600AB0BAA0AA909A8087F407E427D0F7C0063
:1004460012014EC374FF9FFF74FF9EFEE49DFDE400
:100456009CFC78081201F18FC6AB0BAA0AA909A861
:10046600087F407E427D0F7C0012014EC374FF9FC1
:09047600FF8FC543C408D299228E
:07080D003098FDAF99C2987D
:0108140022C1
:08081500C2998F993099FD2270
:10047F008F0F8E0E8D0D8C0C53B1FB53B2FB53B3FC
:10048F00BF53B4BF75F85075C40853C4DFAB0FAA80
:10049F000EA90DA80C7F407E427D0F7C0012014EED
:1004AF00C374FF9FFF74FF9EFEE49DFDE49CFC78E8
:1004BF00081201F18FC6AB0FAA0EA90DA80C7F4031
:1004CF007E427D0F7C0012014EC374FF9FFF8FC5CC
:0404DF0043C40822E8
:07081D0030F8FDAF9AC2F8AC
:0108240022B1
:08082500C2F98F9A30F9FD229F
:10061A008F138E128D118C10538EF7438901D28C51
:10062A00E4FFFEFDFCAB13AA12A911A810C3120124
:10063A00E06025758A7E758CFF308DFDC28DE513CD
:10064A0024FFF513E51234FFF512E51134FFF51115
:0B065A00E51034FFF51080C8C28C22B0
:100665008F588E578D568C55538EF7438901D28CF2
:10067500E4FFFEFDFCAB58AA57A956A855C31201C5
:10068500E06025758ACA758CFA308DFDC28DE558F6
:1006950024FFF558E55734FFF557E55634FFF55671
:0B06A500E55534FFF55580C8C28C22DB
:1006B0008F178E168D158C14538EEF438910D28EA2
:1006C000E4FFFEFDFCAB17AA16A915A814C312017E
:1006D000E06025758BEA758DCB308FFDC28FE517F5
:1006E00024FFF517E51634FFF516E51534FFF5156B
:0B06F000E51434FFF51480C8C28E2210
:100532008F1B8E1A8D198C1853C9BF53C9DF43C93B
:1005420010D2CAE4FFFEFDFCAB1BAA1AA919A81817
:10055200C31201E0602575CC3075CDF830CFFDC2F5
:10056200CFE51B24FFF51BE51A34FFF51AE5193414
:0E057200FFF519E51834FFF51880C8C2CA223B
:100580008F548E538D528C5175C40743C408E4FFB9
:10059000FEFDFCAB54AA53A952A851C31201E0605E
:1005A0002875C52C75C6CFE5C430E4FB53C4EFE510
:1005B0005424FFF554E55334FFF553E55234FFF569
:0D05C00052E55134FFF55180C553C4F722B8
:1005CD008F1F8E1E8D1D8C1C75C40743C408E4FF40
:1005DD00FEFDFCAB1FAA1EA91DA81CC31201E060E5
:1005ED002875C5D875C6FFE5C430E4FB53C4EFE5E7
:1005FD001F24FFF51FE51E34FFF51EE51D34FFF525
:0D060D001DE51C34FFF51C80C553C4F72209
:0300000002076391
:1007630075C7AA75C75575FD5A75C7AA75C7557557
:10077300FDA5787FE4F6D8FD9000007FFF7E03E4BB
:0C078300F0A3DFFCDEFA758158020204CE
:1003A7007F0A7E007D007C0012066553B1FE43B2D2
:1003B7000153B1FD43B20253B3FE43B40153B3FD3E
:1003C70043B40253B3FB43B40453B3F743B4087FB6
:1003D700647E007D007C001206651207C0C2801291
:1003E70007B81207B81207B8C293C292D291C29047
:1003F7001207C0E4FD7F281207F0E4FD7F0C120707
:0F040700F0E4FD7F011207F0E4FD7F060207F02D
:0F07F000ED6007147006D2808002C280020318E9
:020318008F5400
:10031A00E5545480C41313135401147004D2938007
:10032A0002C293E5545440C413135403147004D204
:10033A00928002C292E5545420C4135407147004E4
:10034A00D2918002C291E5545410C4540FFF147024
:10035A0004D2908002C2901207C0E55454081313C5
:10036A0013541F147004D2938002C293E5545404A8
:10037A001313543F147004D2928002C292E554546B
:10038A0002C313147004D2918002C291E55454013D
:0D039A00FF147004D2908002C2900207C0D0
:10078F008B518A528953AB510553E553AA527002CC
:10079F00055214F91200F9FF7D011207F0AB51AAAF
:0907AF0052A9531200F970DE2278
:05082D007D010207F04F
:0E07FF00E4FD7F011207F0E4FD7F020207F027
:1007DA008F53ED7006E55344808004E55344C0FF0F
:0607EA00E4FD1207F022FD
:0807B800C293C292D291D290CB
:1007C000D2817F047E007D007C00120665C2817F9D
:0A07D000047E007D007C0002066537
:10000300E709F608DFFA8046E709F208DFFA803EDF
:1000130088828C83E709F0A3DFFA8032E309F608CC
:10002300DFFA8078E309F208DFFA807088828C8334
:10003300E309F0A3DFFA806489828A83E0A3F608E8
:10004300DFFA805889828A83E0A3F208DFFA804CC2
:1000530080D280FA80C680D4806980F28033801099
:1000630080A680EA809A80A880DA80E280CA803302
:1000730089828A83ECFAE493A3C8C582C8CCC5837A
:10008300CCF0A3C8C582C8CCC583CCDFE9DEE7804A
:100093000D89828A83E493A3F608DFF9ECFAA9F0C9
:1000A300EDFB2289828A83ECFAE0A3C8C582C8CC1F
:1000B300C583CCF0A3C8C582C8CCC583CCDFEADE38
:1000C300E880DB89828A83E493A3F208DFF980CC9A
:1000D30088F0EF60010E4E60C388F0ED2402B40493
:1000E3000050B9F582EB2402B4040050AF2323453A
:0600F3008223900053730C
:1000F900BB010689828A83E0225002E722BBFE0205
:09010900E32289828A83E4932237
:1001120075F008758200EF2FFFEE33FECD33CDCCA4
:1001220033CCC58233C5829BED9AEC99E582984027
:100132000CF582EE9BFEED9AFDEC99FC0FD5F0D604
:10014200E4CEFBE4CDFAE4CCF9A88222B800C1B92E
:100152000059BA002DEC8BF084CFCECDFCE5F0CB6C
:10016200F97818EF2FFFEE33FEED33FDEC33FCEBA5
:1001720033FB10D703994004EB99FB0FD8E5E4F960
:10018200FA227818EF2FFFEE33FEED33FDEC33FC4D
:10019200C933C910D7059BE99A4007EC9BFCE99A41
:1001A200F90FD8E0E4C9FAE4CCFB2275F010EF2F86
:1001B200FFEE33FEED33FDCC33CCC833C810D70786
:1001C2009BEC9AE899400AED9BFDEC9AFCE899F8C1
:0E01D2000FD5F0DAE4CDFBE4CCFAE4C8F92254
:1001E000EB9FF5F0EA9E42F0E99D42F0E89C45F075
:0101F00022EC
:1001F100E8600FECC313FCED13FDEE13FEEF13FFEC
:03020100D8F1220F
:00000001FF
