:03008B0002048FDD
:07048F00538FF7538FEF328A
:1002CC00E4F52953B3DF43B420758F03F586439CC3
:1002DC0004D2AFE4F529B2957F647E0012006C0560
:1002EC0029E529C3940940EE438F08438702E4F5BE
:1002FC0029B2957F2C7E0112006C0529E529D39437
:0B030C000940EE438F0843870280C8C1
:1003F80053B1BF53B2BF53B17F53B27F75985043C7
:100408008920438780438E1053C4DFAB07AA06A90F
:1004180005A8047F407E427D0F7C001200CAEF04CD
:09042800F404F58DD28ED2992264
:100003008F0B8E0A8D098C0853B1BF53B2BF53B106
:100013007F53B27F75985043878053C4F843C420FD
:10002300AB0BAA0AA909A8087F407E427D0F7C007A
:100033001200CAC374FF9FFF74FF9EFEE49DFDE49C
:100043009CFC780812016D8FC6AB0BAA0AA909A8FC
:10005300087F407E427D0F7C001200CAC374FF9F5D
:09006300FF8FC543C408D29922A5
:07046F003098FDAF99C2981F
:010476002263
:08047700C2998F993099FD2212
:100180008F0F8E0E8D0D8C0C53B1FB53B2FB53B3FE
:10019000BF53B4BF75F85075C40853C4DFAB0FAA82
:1001A0000EA90DA80C7F407E427D0F7C001200CA74
:1001B000C374FF9FFF74FF9EFEE49DFDE49CFC78EA
:1001C0000812016D8FC6AB0FAA0EA90DA80C7F40B7
:1001D0007E427D0F7C001200CAC374FF9FFF8FC553
:0401E00043C40822EA
:07047F0030F8FDAF9AC2F84E
:010486002253
:08048700C2F98F9A30F9FD2241
:100317008F138E128D118C10538EF7438901D28C57
:10032700E4FFFEFDFCAB13AA12A911A810C312012A
:100337005C6025758A7E758CFF308DFDC28DE51357
:1003470024FFF513E51234FFF512E51134FFF5111B
:0B035700E51034FFF51080C8C28C22B6
:100362008F178E168D158C14538EF7438901D28CFC
:10037200E4FFFEFDFCAB17AA16A915A814C31201CF
:100382005C6025758ACA758CFA308DFDC28DE517C1
:1003920024FFF517E51634FFF516E51534FFF515BC
:0B03A200E51434FFF51480C8C28C2263
:1003AD008F1B8E1A8D198C18538EEF438910D28E98
:1003BD00E4FFFEFDFCAB1BAA1AA919A818C3120174
:1003CD005C6025758BEA758DCB308FFDC28FE51B7B
:1003DD0024FFF51BE51A34FFF51AE51934FFF5195D
:0B03ED00E51834FFF51880C8C28E220E
:1001E4008F1F8E1E8D1D8C1C53C9BF53C9DF43C97D
:1001F40010D2CAE4FFFEFDFCAB1FAA1EA91DA81C59
:10020400C312015C602575CC3075CDF830CFFDC2CA
:10021400CFE51F24FFF51FE51E34FFF51EE51D3451
:0E022400FFF51DE51C34FFF51C80C8C2CA2280
:100232008F248E238D228C2175C40743C408E4FFCA
:10024200FEFDFCAB24AA23A922A821C312015C60F3
:100252002875C52C75C6CFE5C430E4FB53C4EFE561
:100262002424FFF524E52334FFF523E52234FFF5AA
:0D02720022E52134FFF52180C553C4F72299
:10027F008F288E278D268C2575C40743C408E4FF6D
:10028F00FEFDFCAB28AA27A926A825C312015C6096
:10029F002875C5D875C6FFE5C430E4FB53C4EFE538
:1002AF002824FFF528E52734FFF527E52634FFF549
:0D02BF0026E52534FFF52580C553C4F72240
:03000000020431C6
:1004310075C7AA75C75575FD5A75C7AA75C755758C
:10044100FDA5787FE4F6D8FD9000007FFF7E03E4F0
:0C045100F0A3DFFCDEFA7581290202CC6A
:10045D00D3EF9400EE9400400800EF1F70F21E8061
:02046D00EF227C
:10006C00AD07AC06D3ED9400EC9400400EED1D7082
:0C007C00011C7FE87E0312045D80E92275
:10008E0075F008758200EF2FFFEE33FECD33CDCC29
:10009E0033CCC58233C5829BED9AEC99E5829840AC
:1000AE000CF582EE9BFEED9AFDEC99FC0FD5F0D689
:1000BE00E4CEFBE4CDFAE4CCF9A88222B800C1B9B3
:1000CE000059BA002DEC8BF084CFCECDFCE5F0CBF1
:1000DE00F97818EF2FFFEE33FEED33FDEC33FCEB2A
:1000EE0033FB10D703994004EB99FB0FD8E5E4F9E5
:1000FE00FA227818EF2FFFEE33FEED33FDEC33FCD2
:10010E00C933C910D7059BE99A4007EC9BFCE99AC5
:10011E00F90FD8E0E4C9FAE4CCFB2275F010EF2F0A
:10012E00FFEE33FEED33FDCC33CCC833C810D7070A
:10013E009BEC9AE899400AED9BFDEC9AFCE899F845
:0E014E000FD5F0DAE4CDFBE4CCFAE4C8F922D8
:10015C00EB9FF5F0EA9E42F0E99D42F0E89C45F0F9
:01016C002270
:10016D00E8600FECC313FCED13FDEE13FEEF13FF70
:03017D00D8F12294
:00000001FF
